:100000000C9473010C949B010C949B010C949B0128
:100010000C949B010C949B010C949B010C949B01F0
:100020000C949B010C949B010C949B010C949B01E0
:100030000C949B010C949B010C949B010C949B01D0
:100040000C94C5100C949B010C94C8090C94A20943
:100050000C949B010C949B010C949B010C949B01B0
:100060000C949B010C949B01AED580A83FD300401B
:100070008D142002A1C8DA12817FD9F1DB40A4A639
:10008000AF000005072061000000000000005F00D5
:10009000000007000700147F147F14242A7F2A120F
:1000A00023130864623649552250000503000000FE
:1000B0001C2241000041221C00082A1C2A080808B2
:1000C0003E0808005030000008080808080060607A
:1000D000000020100804023E5149453E00427F4086
:1000E0000042615149462141454B311814127F109D
:1000F00027454545393C4A494930017109050336D0
:1001000049494936064949291E003636000000563D
:10011000360000000814224114141414144122144F
:1001200008000201510906324979413E7E11111140
:100130007E7F494949363E414141227F4141221C4F
:100140007F494949417F090901013E414151327FBF
:100150000808087F00417F41002040413F017F089F
:100160001422417F404040407F0204027F7F040808
:10017000107F3E4141413E7F090909063E41512120
:100180005E7F09192946464949493101017F01012C
:100190003F4040403F1F2040201F7F2018207F63AA
:1001A00014081463030478040361514945430000B3
:1001B0007F4141020408102041417F0000040201F8
:1001C00002044040404040000102040020545454C6
:1001D000787F484444383844444420384444487F75
:1001E0003854545418087E090102081454543C7FB2
:1001F0000804047800447D40002040443D00007F16
:1002000010284400417F40007C041804787C0804D6
:10021000047838444444387C14141408081414181E
:100220007C7C080404084854545420043F44402073
:100230003C4040207C1C2040201C3C4030403C4442
:10024000281028440C5050503C4464544C4400083E
:1002500036410000007F0000004136080008082AEF
:100260001C08081C2A0808000609090668001980ED
:10027000400000030C0F30333C3FC0C3CCCFF0F341
:10028000FCFF00000008000201000003040700005A
:100290000000000000000001020304051112131405
:1002A00015160A0B0C0D0E0F00000000250028008B
:1002B0002B0000000000240027002A00040404048E
:1002C0000404040402020202020203030303030300
:1002D00001020408102040800102040810200102DD
:1002E00004081020BE1611241FBECFEFD8E0DEBFD9
:1002F000CDBF23E0A8E8B1E001C01D92A23FB20744
:10030000E1F711E0A0E0B1E0E0ECF3E302C005901A
:100310000D92A838B107D9F711E0C3E7D1E004C0C6
:100320002197FE010E94C117C237D107C9F70E9469
:100330000F110C94DE190C940000CF93DF93EC01A5
:100340009C818E81981758F4E881F9810084F185A9
:10035000E02D42E0CE0109958C818F5F8C83DF9187
:10036000CF910895089580E090E00895EF92FF9274
:100370000F931F93CF93DF93EC017B01BA018AA9FE
:100380009BA9F70191838083DE01179688E0019095
:100390000D928A95E1F72115310529F0A901CE01C9
:1003A0000F960E94C319F70162817381083311050A
:1003B00061F06034710511F444E001C043E060175E
:1003C000710709F442E0B80101C040E0CE01DF91BD
:1003D000CF911F910F91FF90EF900C943C0D8F9255
:1003E0009F92AF92BF92CF92DF92EF92FF920F93C4
:1003F0001F93CF93DF93EC017B01CCA8D12C860116
:1004000008501109DB0116969C918CE6890F833008
:1004100020F0983C09F0CFC003C0943909F4E4C03F
:100420008BE6890F823018F0983C09F08EC06E017F
:1004300059EDC50ED11CD6012D913C91A801420F5A
:10044000531F4139510520F0C852DF4F1882B1C007
:100450005E01B8EDAB0EB11CF5018081882309F473
:1004600015C1963929F0D70117969C919813A1C010
:10047000FE01EB52FF4F40815181F701848195814C
:100480004817590709F095C04E01FBED8F0E911CDE
:10049000D4018D919C91A801BE01615F7F4F820FB5
:1004A000931F0E94C319F60180819181080F191FC3
:1004B00011830083D70116968C91863929F0F501B6
:1004C00080818150808373C0D5011C92F7018781A0
:1004D000FE01E952FF4F8083833809F483C07E0117
:1004E000FFECEF0EF11CF701A081B181CE018A1B58
:1004F0009B0B8B539F4F80179107F8F032968AE041
:1005000001900D928A95E1F7D7018D919C91F401AC
:1005100060817181D6014D915C910A960E94C31948
:10052000F601808191810A96D7012D913C91119716
:10053000820F931F8D939C933AC08FA598A90E9418
:10054000FA0A8AA581608AA734C07E01BFECEB0E4F
:10055000F11CF701A081B181CE01C5969D01281B38
:10056000390BC901800F911F8B39910510F5E85C9B
:10057000F10988E001900D928A95E1F7D701ED919C
:10058000FC911197118700878D919C91BE01615F4D
:100590007F4FA8010A960E94C319B2E0CB0ED11C6E
:1005A000F70180819181C80ED91ED182C08281E07D
:1005B0006DC080E06BC0933841F6DE01AF52BF4F93
:1005C000FE01379688E001900D928A95E1F7FE01D1
:1005D000E552FF4FCE010F9691838083C752DF4FC4
:1005E0001983088382E052C0F7018781873008F0C1
:1005F0002BCFFE01EB52FF4F40815181D701149662
:100600002D913C91159734976F014217530739F498
:10061000408151812D913C914217530741F2F8E1FD
:100620008F9FC0011124FE01E153FF4F20813181D2
:10063000AE01421B530B9A012B533F4F281739072A
:100640003CF48AA581608AA78FA598A90E94FA0A1E
:10065000FE01379688E0D60101900D928A95E1F768
:10066000FE01E552FF4FBE01615F7F4FA80180810F
:1006700091810E94C319FE01E752FF4F118300834D
:10068000C852DF4F88818150888391CFDF91CF910D
:100690001F910F91FF90EF90DF90CF90BF90AF90A0
:1006A0009F908F900895DC01ED91FC910084F1857D
:1006B000E02D40E009940F931F93CF938C01FC0130
:1006C00064839085C62FC90F6C2F6F70C8010E947C
:1006D00053036C2F62956F706061C801CF911F91B9
:1006E0000F910C9453030F931F93CF93DF931F929B
:1006F000CDB7DEB78C01FC018681681728F4C801EC
:1007000049830E945B034981F8018781869586951C
:100710008695481758F44583642F606BC8010F9085
:10072000DF91CF911F910F910C9453030F90DF91A4
:10073000CF911F910F910895CF92DF92EF92FF9288
:100740000F931F93CF93DF93EC01F62EC42ED22E7E
:100750008F81869586958695081710F00FEF080F04
:100760001D2D011780F0412F6F2DCE010E947303C4
:10077000EF2CCE1430F060E0CE010E949D01E39496
:10078000F8CF1F5FEECF4D2D6F2DCE01DF91CF91B2
:100790001F910F91FF90EF90DF90CF900C94730317
:1007A0002F923F924F925F926F927F928F929F9281
:1007B000AF92BF92CF92DF92EF92FF920F931F936F
:1007C000CF93DF93CDB7DEB727970FB6F894DEBF90
:1007D0000FBECDBFDC011B960D911C911C9701151E
:1007E000110509F462C19F838E83F801B49131969B
:1007F0004491319654903196A491EA2EF12CF7E071
:10080000EF0EF11C23E0F594E7942A95E1F7EB82D3
:10081000F801349674913196E491671758F0862F59
:1008200090E02E2F30E0F901E70FF11D8E179F07A2
:100830000CF473C06D3069F4AE81BF8116968C9153
:10084000882309F467C060E08E819F810E945B036A
:1008500061C06A3009F029C1EE81FF81818565811F
:10086000D62E8E9DD00C11248781869586958695EF
:10087000D81630F08285882319F082E08287D12C47
:100880004D2D60E08E819F810E947303AE81BF81F8
:100890001A968C911A97823008F43CC015962C91C8
:1008A00015971B96ED91FC911C97309741F033966C
:1008B000E49119960C91E09FE02D112401C0E0E035
:1008C0008FEF820F0E2F10E0095F1F4F93E01595F9
:1008D00007959A95E1F7080FEE81FF814681415017
:1008E0006481CF010E949C03AE81BF8119968C91D7
:1008F00019976D2D8E9D600D1124660F660F660F82
:1009000017968C91861708F460E060648E819F8151
:100910000E94530381E090E0CAC050E05B2BC80105
:100920000696671BEE81FF81F185F9834230510500
:1009300088F4452B09F019825E9C90015F9C300D74
:100940001124629F8001639F100D1124080F191F4D
:10095000412C24C0EA2FE77021F048E0442E4E1AC3
:1009600001C0412CA82FFC0140E050E07E2F7A1BF3
:10097000761728F47491470F511D3196F7CFFC017B
:10098000E60FF11D54904E9D80014F9D100D5E9D10
:10099000100D1124020F131F080F191FAE81BF8104
:1009A0001496BC91BC83EE81FF813580652C712C3F
:1009B000CC24C394D12C812C912C7FEF7C0D7A8395
:1009C0008B81781708F05FC0212CAE81BF8119960A
:1009D0008C91281608F051C07A81711102C0222032
:1009E00051F0AE81BF8115964C9115974F5F6C8188
:1009F000CD010E947303A12CB12CA51488F5F5013B
:100A0000E80DF91DE00FF11F2491442061F0CE1490
:100A1000DF0449F4E22FF0E0042C02C0F595E795DD
:100A20000A94E2F72E2FEE81FF818185823079F4DE
:100A3000E22F2110E295EF70F0E0EE58FD4F249187
:100A4000622F8E819F812D830E949D012D81622FB7
:100A50008E819F810E949D01FFEFAF1ABF0ACDCF0B
:100A6000B12C7981B71639F060E08E819F810E94A8
:100A70009D01B394F6CF2394A8CF860C971CBFEFAB
:100A8000CB1ADB0A9ACFAE81BF8117968C9117974C
:100A9000869586958695381608F03CCF15963C923B
:100AA0001597632D606BCD0133CF80E090E02796E2
:100AB0000FB6F894DEBF0FBECDBFDF91CF911F916F
:100AC0000F91FF90EF90DF90CF90BF90AF909F90ED
:100AD0008F907F906F905F904F903F902F900895F0
:100AE0000F93CF93DF93EC010F8106950695069542
:100AF00001504E81415020E060E00E949C0381E063
:100B00009A85911101C080E08A8760E4CE01DF916F
:100B1000CF910F910C945303DC01862F262F30E0E8
:100B2000F901E454FD4FE491F0E0EE0FFF1FE855AA
:100B3000FD4F4591549113965C934E931297F90192
:100B4000E053FD4FE491EC93E0951196EC930C94F7
:100B5000230E8EBD00000DB407FEFDCF8EB50895A7
:100B60003F924F925F926F927F928F929F92AF923D
:100B7000BF92CF92DF92EF92FF920F931F93CF938A
:100B8000DF93EC019AA5892F827091FD17C0FE01B9
:100B9000E153FF4FAE014B5C5F4F90FD07C02081DA
:100BA0003181241B350B2937310544F020813181F7
:100BB0004217530708F429C19E7F9AA78E01095F47
:100BC0001F4F502EEE24E394F12C6E0181E9C81AD8
:100BD0008EEFD80A74E2A72E79E0B72E8FA498A8DA
:100BE000F401808191818F3F910511F480E00DC166
:100BF000F401828193818F3F9105C1F367E1C401C4
:100C00000E947A0A982F9170792E80FDEFCF6FEFB6
:100C1000C4010E94000A8FA498A8C4010E94FD0983
:100C200080E60E94A9058FEF0E94A905682EC401E5
:100C30000E94FA09F0E2F61508F056C062EEC4010F
:100C40000E94000A62E070E080E090E00E942F10B5
:100C50007CAA97E0971538F06AE070E080E090E0B9
:100C60000E942F10BBCF8FA498A8F4018781472C36
:100C7000871508F4482EF4019085911103C0382E91
:100C8000341801C0312CC4010E94FD0981E60E9484
:100C9000A9053801450C461439F08FEF0E94A905CB
:100CA000F30181933F01F7CF732C772029F08FEF69
:100CB0000E94A9057A94F9CFC4010E94FA0940E77D
:100CC00067E0C4010E941F0A69857A85CB010097FD
:100CD00069F0282F2770263008F080CF53E09695D2
:100CE00087955A95E1F7F3CF762CB2CF8D852AA957
:100CF0003BA962177307E1F5823809F46FCF80389A
:100D000081F464327940D1F0BA86A98642E064E287
:100D100079E0CE010E943C0D6AE070E080E090E056
:100D200040C0833C59F46115710541F078876F83A9
:100D30001A86198640E060E070E063C099A59923A7
:100D400019F087FF0CC002C0813C49F49CE6980F63
:100D5000933028F0883C19F0833809F056C0B80168
:100D6000CE010E94EF01823009F038CF83E84DC0F8
:100D70006034710509F044C0823CC9F48AA583FD42
:100D80002DCF243289E0380709F428CF8F81988548
:100D90009A87898738872F83F601608170E080E029
:100DA00090E00E942F1069857A8542E02AC0B80140
:100DB000CE010E94EF01982E88818823E9F029A9AD
:100DC000222379F030E021503109C901880F991FA1
:100DD000280F391FB70102C0660F771F2A95E2F767
:100DE00002C060E070E083E0660F771F8A95E1F74C
:100DF00044E0CE010E943C0DF2E09F12EFCEB6CF50
:100E000041E0CE010E943C0DE9CEDF91CF911F91D0
:100E10000F91FF90EF90DF90CF90BF90AF909F9099
:100E20008F907F906F905F904F903F9008952F929A
:100E30003F924F925F926F927F928F929F92AF926A
:100E4000BF92CF92DF92EF92FF920F931F93CF93B7
:100E5000DF93EC017B015A01690148010E9469108E
:100E60004BA45CA46DA47EA4DC01CB01841995097C
:100E7000A609B7094997A105B10528F4CE010E943A
:100E8000B00587FFEBCF8CE891E00197F1F789E19E
:100E9000C816D104B0F488E08C0D8CAB84019601A7
:100EA000A501B701CE010E94B601182F882311F0C9
:100EB00011E092C00E9469106BA77CA78DA79EA726
:100EC0008BC0E1E9CE16D10408F085C0C60168E107
:100ED00070E00E94821721E0892B09F420E0C6010E
:100EE00068E170E00E948217722E760EF70182810F
:100EF00093818034910539F08AA584608AA78FA5F3
:100F000098A90E94FA0AF7014680512C612C84E9C5
:100F1000282E96E9392EF7017782F1E07F1204C07E
:100F2000F7013682478208C0611003C0F7012682AC
:100F300003C085E9F7018683E8E16E9EA0011124D4
:100F40009601241B350B2931310510F028E130E0E2
:100F500088E0820F8CAB4A0D5B1D8401B701CE0186
:100F60000E94B601182F81110BC062E070E080E092
:100F700090E00E942F105394F2E0F51560F606C041
:100F80007A946394772011F0512CC5CFF7014682F3
:100F90008AA582FF12C049815A816B817C818FA50D
:100FA00098A90E947510182F8FA598A90E942F0B41
:100FB00060E08FA598A90E94980E8AA58B7F8AA7CA
:100FC000112349F0772009F473CF0E9469106BA7B1
:100FD0007CA78DA79EA710E0812FDF91CF911F9155
:100FE0000F91FF90EF90DF90CF90BF90AF909F90C8
:100FF0008F907F906F905F904F903F902F900895CB
:10100000CF93DF93EC01862FF894EB89FC89208144
:10101000442319F09989922B02C09A8992239083D4
:10102000789490E59CBD91E09DBDF894EF85F8899A
:1010300020819E859223908378940E94A905F8943C
:10104000EF85F88990818D85892B80837894DF9155
:10105000CF910895CF92DF92EF92FF920F931F935B
:10106000CF93DF936C017A018B01C0E0D0E0CE1505
:10107000DF0589F0D8016D918D01D601ED91FC91CC
:101080000190F081E02DC6010995892B11F47E01B4
:1010900002C02196ECCFC701DF91CF911F910F9134
:1010A000FF90EF90DF90CF900895FC01538D448D19
:1010B000252F30E0842F90E0821B930B541710F003
:1010C000CF96089501970895FC01918D828D981710
:1010D00061F0828DDF01A80FB11D5D968C91928D1C
:1010E0009F5F9F73928F90E008958FEF9FEF089519
:1010F000FC01918D828D981731F0828DE80FF11DE2
:10110000858D90E008958FEF9FEF0895FC01918DFC
:10111000228D892F90E0805C9F4F821B91098F73F5
:101120009927089581E991E00E94860821E0892BA2
:1011300009F420E0822F0895FC01848DDF01A80FBF
:10114000B11DA35ABF4F2C91848D90E001968F73EF
:101150009927848FA689B7892C93A089B1898C910E
:1011600080648C93938D848D981306C00288F389D4
:10117000E02D80818F7D80830895EF92FF920F9301
:101180001F93CF93DF93EC0181E0888F9B8D8C8D33
:10119000981305C0E889F989808185FD24C0F62E61
:1011A0000B8D10E00F5F1F4F0F731127E02E8C8DFA
:1011B000E8120CC00FB607FCFACFE889F9898081E4
:1011C00085FFF5CFCE010E949C08F1CF8B8DFE01EB
:1011D000E80FF11DE35AFF4FF0820B8FEA89FB897C
:1011E0008081806207C0EE89FF896083E889F98980
:1011F00080818064808381E090E0DF91CF911F91B6
:101200000F91FF90EF900895CF93DF93EC01888DBD
:101210008823C9F0EA89FB89808185FD05C0A889FA
:10122000B9898C9186FD0FC00FB607FCF5CF808180
:1012300085FFF2CFA889B9898C9185FFEDCFCE01CA
:101240000E949C08E7CFDF91CF91089580E090E065
:10125000892B29F00E94920881110C9400000895B6
:10126000CF93DF93DC01FB01EC01C359DE4F6881B2
:10127000798122969881828140815181823028F043
:10128000BA0181E0838390E027C0ED01C059DE4FB1
:1012900028813981EA01C223D323D2960D90BC91D3
:1012A000A02DCA17DB07C1F4C9018095909563E0B2
:1012B000880F991F6A95E1F784239523892B51F0B4
:1012C00083E0220F331F8A95E1F72760BA0162237A
:1012D000732301C0BA0195E071836083928381E03A
:1012E000DF91CF9108950E94BE19CF93DF93EC0157
:1012F0009CB59F7D9CBD9CB5937F9CBD9CB59C7F00
:101300009CBD9DB591609DBD8A810E94DA0F8C893C
:101310009D89DF91CF910C9426106115710579F0AC
:10132000FB0101900020E9F73197AF01461B570BF5
:10133000DC01ED91FC910280F381E02D099480E0C5
:1013400090E008951F920F920FB60F9211242F93E1
:101350003F934F935F936F937F938F939F93AF933D
:10136000BF93EF93FF9381E991E00E949C08FF9166
:10137000EF91BF91AF919F918F917F916F915F910D
:101380004F913F912F910F900FBE0F901F90189586
:101390001F920F920FB60F9211242F938F939F934A
:1013A000EF93FF93E091A101F091A2018081E09180
:1013B000A701F091A80182FD12C090818091AA013D
:1013C0008F5F8F732091AB01821751F0E091AA01DA
:1013D000F0E0EF56FE4F958F8093AA0101C0808107
:1013E000FF91EF919F918F912F910F900FBE0F90D2
:1013F0001F90189561E00C94750960E00C947509D4
:10140000EF92FF921F93CF93DF931F92CDB7DEB77A
:101410007C0169830E94FD096981862F0E94A905CC
:10142000182FC7010E94FA09812F0F90DF91CF91E9
:101430001F91FF90EF90089561EE0C94000AEF92D7
:10144000FF921F93CF93DF9300D0CDB7DEB77C011F
:101450004A8369830E94FD096981862F8F718062AA
:101460000E94A905182F4A81842F0E94A905C7014F
:101470000E94FA09812F0F900F90DF91CF911F9159
:10148000FF90EF900895CF92DF92EF92FF920F932B
:101490001F93CF93DF9300D01F92CDB7DEB77C01AF
:1014A000142F2A835B8369830E94FD096981862F3B
:1014B0008F7180620E94A905082FC12E5B81D52EF5
:1014C0002A81120F1C1531F0F60181916F010E94E3
:1014D000A905F8CFC7010E94FA09802F0F900F903D
:1014E0000F90DF91CF911F910F91FF90EF90DF90C0
:1014F000CF900895EF92FF921F93CF93DF931F92A7
:10150000CDB7DEB77C0169830E94FD096981862F12
:101510008F710E94A9058FEF0E94A905182FC7019E
:101520000E94FA09812F0F90DF91CF911F91FF90B8
:10153000EF900895EF92FF920F931F93CF938C013A
:101540007B0166E00E947A0AC82FC77D82E0E81618
:10155000F10431F4C0628BE990E0A0E0B0E00DC08E
:10156000EA94EF2829F085E590E0A0E0B0E005C01E
:10157000C86081E490E0A0E0B0E0F801808B918B3E
:10158000A28BB38B4C2F66E0C8010E941F0A66E055
:10159000C8010E947A0A91E08C1390E0892FCF91C4
:1015A0001F910F91FF90EF900895CF93DF93EC017F
:1015B00060E00E947A0A81FD0EC0482F426060E020
:1015C000CE010E941F0A65E070E080E090E0DF91AC
:1015D000CF910C942F10DF91CF910895FC012081C1
:1015E0003181828193812817390719F0822F0C9459
:1015F000DA0F0895CF93DF93EC0160E00E94EE0ACA
:10160000888999890E9426106DE1CE010E947A0A8C
:1016100081FF07C0888999890E942610CE010E9407
:101620001C0A60E0CE010E947A0A482F4E7F60E0DB
:10163000CE010E941F0A62E0CE010E947A0AE6E90A
:10164000F2E0E49141E050E001C0440FEA95EAF78E
:10165000482B62E0CE01DF91CF910C941F0ACF930B
:10166000DF93EC010E94D50A60E0CE010E947A0A65
:10167000482F416060E0CE010E941F0A40E767E00A
:10168000CE010E941F0A61E0CE010E94EE0A898508
:10169000882349F02E85AE01475F5F4F6AE0CE0197
:1016A0000E94430A14C062E0CE010E947A0AE6E971
:1016B000F2E0E49121E030E001C0220FEA95EAF780
:1016C0002095422F482362E0CE010E941F0A6DE15F
:1016D000CE010E947A0A81FF05C0CE01DF91CF9131
:1016E0000C941C0ADF91CF9108951F93CF93DF9341
:1016F000EC01888199812A813B818217930711F03F
:101700000E94230E8A819B812881398128173907FD
:1017100011F00E94230E1FB7F8948091900181115F
:1017200024C0E6ECF2E08491EAEDF2E09491E82F37
:10173000F0E0EE0FFF1FEE54FD4FA591B491EC9138
:10174000E92321F461E08AE00E94DA0F8AE00E9436
:10175000230E8CB580618CBD8CB580648CBD8DE012
:101760000E94230E8BE00E94230E809190018F5FD8
:10177000809390011FBF60E0CE010E94EE0A61E0FD
:10178000CE010E94750965E070E080E090E00E9463
:101790002F104CE060E0CE010E941F0A4FE564E08C
:1017A000CE010E941F0A62E070E0CE010E949A0AF8
:1017B000882311F081E08E8366E0CE010E947A0AD0
:1017C000182F60E070E0CE010E949A0ACE010E94BC
:1017D000FD0980E50E94A90583E70E94A905CE01C5
:1017E0000E94FA0940E06DE1CE010E941F0A40E02C
:1017F0006CE1CE010E941F0A188640E767E0CE0127
:101800000E941F0A4CE465E0CE010E941F0A62EEAE
:10181000CE010E94000ACE010E941C0ACE010E9445
:10182000D50A60E0CE010E947A0A482F4E7F60E020
:10183000CE010E941F0A115081E01E3F08F080E097
:10184000DF91CF911F910895CF93DF93CDB7DEB78E
:1018500028970FB6F894DEBF0FBECDBFAC019CEC4D
:1018600099839A839B839C839D831E821F82188603
:101870009A01E1E021153105C9F0611103C041155C
:10188000510569F4D901A770BB27A65EBE4F8C91A4
:10189000A1E0B0E0AC0FBD1FAE0FB11D8C9383E093
:1018A000369527958A95E1F7EF5FE4CF611102C085
:1018B000452B39F4E62FF0E0E65EFE4F8081898308
:1018C00005C0F0E0E75EFE4F80818A8329813A817E
:1018D0004B815C816D817E818F81988528960FB6C2
:1018E000F894DEBF0FBECDBFDF91CF9108956F9208
:1018F0007F928F929F92AF92BF92CF92DF92EF92A0
:10190000FF920F931F93CF93DF93CDB7DEB7289746
:101910000FB6F894DEBF0FBECDBF8C01CB01D22E27
:10192000642F0E94240C39014A015B017C01F801FB
:1019300082A582FD04C087A590A90E94FA0AF80139
:1019400087A590A9DD2011F060E001C061E00E9450
:10195000980EF801C7A4D0A869827A828B829C82F3
:10196000AD82BE82EF82F886F6012685AE014F5F1A
:101970005F4F6AE0C6010E94430AF6012685AE0168
:101980004F5F5F4F60E1C6010E94430AF601478145
:1019900061E1C6010E941F0AF801B4A8C7A4D0A83B
:1019A0006FEFC6010E94000A80FF0DC06FEFC601F5
:1019B0000E94000A84FFF4CF40E167E0C6010E9464
:1019C0001F0AF12C30C0F601F780EF2CBF1408F489
:1019D000EB2CF6018085811102C0FE1801C0F12CAC
:1019E000C6010E94FD0980EA0E94A9055801F7E09E
:1019F000AF0EB11CEA0CEA1431F0F50181915F01E0
:101A00000E94A905F8CFFF2029F080E00E94A905D7
:101A1000FA94F9CFC6010E94FA0961E0C6010E945A
:101A2000EE0AFF24F394F80182A582FD0FC04181E4
:101A300052816381748187A590A90E947510F82E48
:101A400060E0F80187A590A90E94980E8F2D289636
:101A50000FB6F894DEBF0FBECDBFDF91CF911F91BF
:101A60000F91FF90EF90DF90CF90BF90AF909F903D
:101A70008F907F906F900895CF92DF92EF92FF92B8
:101A80000F931F93CF93DF9300D000D0CDB7DEB775
:101A9000FC0195859B012115310561F0822F87702E
:101AA000863030F483E0369527958A95E1F7F3CFB9
:101AB00080E097C09154EE24E3949F3708F0E12C26
:101AC000F42E6B018F0119821A821B821C827A8389
:101AD00069834B83BE016F5F7F4FCF010E94300946
:101AE00069817A812C814B81C8010E94770CF1E0D9
:101AF000FF1227C0811102C0F12C6AC089819A812E
:101B00008C159D0501F5EE20F1F081ECF80185873B
:101B100087819085928781879A838983FB821C8243
:101B2000BE016F5F7F4FC8010E94300988E0F80155
:101B300084AB69817A812C814B81C8010E94770C2A
:101B400002C08823C9F289819A818C159D0519F4F8
:101B5000FF24F3943DC0FF2019F0F3E0FF12F8CF0B
:101B6000EE20B1F3F80182A582FF11C041815281BC
:101B70006381748187A590A90E947510F80182A5E0
:101B80008B7F82A760E087A590A90E94980EF8013C
:101B900087A590A90E942F0B0E9469106B017C0100
:101BA000C8010E94B005813C99F20E946910AB0106
:101BB000BC014C195D096E097F09F8018581968188
:101BC000A0E0B0E084179507A607B70748F794CFC1
:101BD000F80182A582FD04C087A590A90E942F0B61
:101BE0008F2D0F900F900F900F90DF91CF911F913D
:101BF0000F91FF90EF90DF90CF9008953FB7F8944A
:101C00008091EA039091EB03A091EC03B091ED0376
:101C100026B5A89B05C02F3F19F00196A11DB11D47
:101C20003FBFBA2FA92F982F8827820F911DA11D82
:101C3000B11DBC01CD0143E0660F771F881F991FBE
:101C40004A95D1F7089590E0FC01E053FD4F2491AF
:101C5000FC01E454FD4F8491882399F090E0880FB3
:101C6000991FFC01EE54FD4FA591B491FC01E8557C
:101C7000FD4F859194918FB7F894EC91E22BEC9302
:101C80008FBF0895CF93DF93BC0180ED93E00E9456
:101C90008D09EC0165E871E080ED93E00E948D090B
:101CA0008C0F9D1FDF91CF910895CF93DF932091EB
:101CB0001503309116032B573240A1F198F19B0187
:101CC000DC0188E0EBE7F2E001900D928A95E1F704
:101CD000C0918302D09184024115510549F0C41787
:101CE000D50708F4AE0165E872E0C9010E94C31986
:101CF00086EF9FEF8C1B9D0B2091150330911603EF
:101D0000820F931F90931603809315034AE950E0C6
:101D10004C1B5D0BBE016B577D4F8BE792E00E9421
:101D2000CC1902C0C0E0D0E0CE01DF91CF91089580
:101D30001F93CF93DF93EC01162F61E00E947A0A84
:101D4000482F112311F0416001C04E7F61E0CE01A8
:101D5000DF91CF911F910C941F0A7F928F929F92D7
:101D6000AF92BF92CF92DF92EF92FF920F931F93A9
:101D7000CF93DF93CDB7DEB728970FB6F894DEBFC9
:101D80000FBECDBFFC019B012115310559F0822FFB
:101D90008770863008F0FAC0A3E036952795AA959B
:101DA000E1F7F2CF62AB73AB87A590A9DC012D916F
:101DB0003C912F3F310509F4E9C0DC0112962D91C9
:101DC0003C9113972F3F310509F4E0C0E72EF62E22
:101DD0008F0160E00E94980EF801C7A4D0A86DE1C1
:101DE000C6010E947A0A482F44606DE1C6010E9434
:101DF0001F0A6CE1C6010E947A0A482F4F636CE10A
:101E0000C6010E941F0A81E0D60118968C93F80142
:101E100082A993A966E070E00E948217482F440FC0
:101E20004B5FF0E14F9FA0011124456064E0D801B1
:101E30009F968D919C91D0970E941F0A89E190E016
:101E4000A0E0B0E0F80181839283A383B4838BE4A4
:101E500090E09683858382A993A940E02FEF3FEF1E
:101E6000B90168237923672B39F073E0220F331F00
:101E70007A95E1F74F5FF4CFF80141AB20953095AB
:101E8000E059FE4F3183208363E0369527956A95AC
:101E9000E1F73397A9014823592351834083211542
:101EA000310559F043E0969587954A95E1F753E05F
:101EB000369527955A95E1F7F2CFF801E159FE4F93
:101EC000808386E0782E88248394912C7A94FFEF87
:101ED0007F1609F454C0672D8F2D9E2D0E94240C6F
:101EE000D8019F96CD90DC90D09729833A834B837D
:101EF0005C836D837E838F839887A72CB12C7110B0
:101F00000BC0F601468550E0BE016F5F7F4FC601F2
:101F100009960E94C31903C0F1E07F1208C0F501C1
:101F2000EE55FD4F6491D6011E962C9105C0F5012A
:101F3000EE55FD4F649121E0AE014F5F5F4FC6014A
:101F40000E94430AF501E456FD4F6491F601478172
:101F5000C6010E941F0A62E0C6010E947A0AF501CA
:101F6000EA56FD4FE491940101C0220FEA95EAF789
:101F7000482F422B62E0C6010E941F0AA7CFD8015A
:101F80009F968D919C91D0970E942F0B28960FB60B
:101F9000F894DEBF0FBECDBFDF91CF911F910F919F
:101FA000FF90EF90DF90CF90BF90AF909F908F9079
:101FB0007F90089590E0FC01EE57FD4F3491FC01B5
:101FC000E053FD4F2491FC01E454FD4FE491EE23D6
:101FD00009F43BC0332339F1333091F038F4313018
:101FE000A9F0323001F584B58F7D12C0373091F001
:101FF0003830A1F03430B9F4809180008F7D03C077
:10200000809180008F77809380000DC084B58F779A
:1020100084BD09C08091B0008F7703C08091B0006B
:102020008F7D8093B000F0E0EE0FFF1FE855FD4F6D
:10203000A591B4918FB7F894EC91611103C02095EC
:102040002E2301C02E2B2C938FBF08958330910532
:1020500028F0880F991F04970197F1F708958F9240
:102060009F92AF92BF92CF92DF92EF92FF926B015D
:102070007C010E94FE0D4B015C01C114D104E104FE
:10208000F104F1F00E94FE0DDC01CB0188199909E1
:10209000AA09BB09883E9340A105B10570F321E070
:1020A000C21AD108E108F10888EE880E83E0981E74
:1020B000A11CB11CC114D104E104F10419F7DDCF56
:1020C000FF90EF90DF90CF90BF90AF909F908F9058
:1020D00008952FB7F8946091E6037091E70380911B
:1020E000E8039091E9032FBF08958F929F92AF92DA
:1020F000BF92CF92DF92EF92FF92CF93DF93EC01EA
:102100004A015B010E9469106B017C0167E1CE010D
:102110000E947A0A84FD29C06FEFCE010E94000A56
:1021200084FFF4CF40E167E0CE010E941F0A60E027
:10213000CE010E94EE0A61E0CE010E94EE0A0E94EA
:102140006910DC01CB018C199D09AE09BF09881506
:102150009905AA05BB05D0F260E0CE010E94EE0A07
:10216000CE010E941C0A80E005C060E0CE010E9402
:10217000EE0A81E0DF91CF91FF90EF90DF90CF905A
:10218000BF90AF909F908F9008951F920F920FB6BF
:102190000F9211242F933F938F939F93AF93BF93ED
:1021A0008091E6039091E703A091E803B091E903E1
:1021B0003091E50326E0230F2D3720F40296A11D70
:1021C000B11D05C029E8230F0396A11DB11D209361
:1021D000E5038093E6039093E703A093E803B093AD
:1021E000E9038091EA039091EB03A091EC03B09195
:1021F000ED030196A11DB11D8093EA039093EB03BB
:10220000A093EC03B093ED03BF91AF919F918F9199
:102210003F912F910F900FBE0F901F901895CF9365
:10222000DF93CDB7DEB7AB970FB6F894DEBF0FBE26
:10223000CDBF789484B5826084BD84B5816084BD4F
:1022400085B5826085BD85B5816085BD80916E0054
:10225000816080936E001092810080918100826085
:1022600080938100809181008160809381008091C2
:1022700080008160809380008091B10084608093B1
:10228000B1008091B00081608093B00080917A00AD
:10229000846080937A0080917A00826080937A00D3
:1022A00080917A008E7F80937A0080917A00806896
:1022B00080937A001092C10088EB93E00E94750B26
:1022C00066E088EB93E00E947A0A887F482F456099
:1022D00066E088EB93E00E941F0A62E070E088EB02
:1022E00093E00E949A0A88E00E94230E60E088E052
:1022F0000E94DA0F6AE070E080E090E00E942F1008
:1023000061E088E00E94DA0F6AE070E080E090E02F
:102310000E942F1067E08DED93E00E948C0566E02F
:1023200081EE93E00E948C052A9A229A239A259A9C
:102330001092D4031092D503ECE6F2E085919491CB
:10234000E82EEEE6F2E0F490EFE6F2E0E491E093BE
:10235000D603E0E7F2E0E491E093D703E1E7F2E0AF
:10236000E491E093D8038C01802F8E198F1548F4E7
:10237000F801649180ED93E00E9453030F5F1F4FBB
:10238000F3CF1092DA0380ED93E00E94700581E8AC
:1023900090E09093DC038093DB0380ED93E00E9458
:1023A000700512E01093D90381E491E00E94420E7F
:1023B00089E491E00E94420EE091A101F091A20116
:1023C0001083E0919D01F0919E011082E0919F01A8
:1023D000F091A00188E080831092A901E091A5010D
:1023E000F091A60186E08083E091A301F091A40121
:1023F000808180618083E091A301F091A4018081BC
:1024000088608083E091A301F091A40180818068BD
:102410008083E091A301F091A40180818F7D80836E
:102420001092300280913402909135020E94750B17
:1024300080913002882339F084E299E090932F0252
:1024400080932E020EC086E090E00E94C717909302
:102450003202809331021092330210922F021092B6
:102460002E0281E68093410241E665E080913402CC
:10247000909135020E941F0A60E070E08091340262
:10248000909135020E949A0A80913602909137020B
:1024900021E0DC0199962C9320913002222351F007
:1024A00067E180913402909135020E947A0A80FFA0
:1024B00007C05BC260912E0270912F020E94AD0E88
:1024C00061E571E081E991E00E948D0964E670E0C8
:1024D00080E090E00E942F1081E991E00E94860840
:1024E000892B71F381E991E00E946408813441F7FE
:1024F00080ED93E00E94700587E591E00E94420E16
:102500008EE591E00E94420E64EF71E080E090E081
:102510000E942F1080ED93E00E94700587E691E005
:102520000E94420E76EC872E77247394E8E09E2E6C
:10253000FAE02F2E312C412C512C809136029091B3
:1025400037020E94B00540912E0250912F02443272
:1025500099E0590709F4DDC0833C11F47092380208
:10256000909130029111D5C0982F9D7F943C09F035
:10257000AEC0E0913602F09137027F01A7E0EA0E8B
:10258000F11C27813085328721872785843C41F5DE
:1025900040913302809131029091320230E0341741
:1025A00089F08C010396BC0163507109DB015C91D9
:1025B000521306C0D80111968D919C91129704C0B8
:1025C0003F5FEDCF8FEF9FEF9A83898308E310E0A1
:1025D00022E030E0AE014F5F5F4FB701CF0174C022
:1025E00030E03BA72AA72115310509F45DC0452B32
:1025F000C1F450913302809131029091320240E057
:10260000451709F44EC0FC010396DC0112976D9149
:102610007C916217730719F4808190E047C04F5F87
:10262000EFCF1C821B8280910001909101019C01DF
:102630002F5F3F4F30930101209300019E838D83D4
:102640008F8208E310E022E030E0AE01465D5F4F8C
:10265000BE016F5F7F4FCF010E941707882309F1EA
:102660000E9469105B016C018091360290913702E3
:102670000E94B005863C71F00E946910DC01CB011C
:102680008A199B09AC09BD09853F9140A105B10597
:1026900058F307C0E0913602F091370287859089A0
:1026A00005C08FEF9FEF02C080E090E09A8389839E
:1026B00008E310E022E030E0AE014F5F5F4FB7016A
:1026C00080913602909137020E94170722C0853C04
:1026D00001F5A0913602B09137022091310230917C
:1026E000320280E090913302891798F4F90193E067
:1026F000899FE00DF11D11246181728117964D9122
:102700005C9118976417750711F4128211828F5F1C
:10271000E9CF80913802882309F459C01092380219
:10272000E0913602F09137023796DE011196892D3D
:1027300001900D928A95E1F7F884FF2009F447C0D3
:1027400049815A814432A9E05A0791F09A0180E008
:102750002115310539F063E0369527956A95E1F743
:102760008F5FF6CF182F110F180FBA0180E004C049
:1027700081E010E060E070E090E00496E0903302C9
:10278000D0903102C09032029C01012E02C0220F73
:10279000331F0A94E2F7262B372B21153105A9F0B8
:1027A000ED2DFC2D00E00E1509F44DC2A181B28182
:1027B000A217B30719F4A081AF1107C033962432D2
:1027C000B9E03B0711F00F5FEECF0197E9F680917A
:1027D0001503909116038B57924009F008F44CC0F2
:1027E000EBE7F2E0DE011196892D01900D928A95BA
:1027F000E1F78F818D34E9F08E34B1F54BE050E094
:1028000062E071E0CE0101960E94550E62E071E037
:1028100081E991E00E948D0980ED93E00E947005AE
:1028200082E791E00E94420E8DE091E00E94420E0C
:102830001BC047E050E06DE071E0CE0101960E94C0
:10284000550E6DE071E081E991E00E948D0980ED07
:1028500093E00E94700582E791E00E94420E8DE0B5
:1028600091E00E94420E08C040E050E060E070E05D
:10287000CE0101960E94550E0E9469105B016C0109
:102880009B01A60160E070E080E090E0A0908801EC
:10289000B0908901C0908A01D0908B01E0908C01AA
:1028A000F0908D0100918E0110918F010E94B81758
:1028B00028383341410551056105710581059105B0
:1028C00009F00CF44FC00E9469108B019C016093C9
:1028D00088011093890120938A0130938B01109213
:1028E0008C0110928D0110928E0110928F01109127
:1028F0003302412F50E080E090E08417950714F4F4
:102900000196FBCF80ED93E00E94700587E691E091
:102910000E94420E6DE771E080ED93E00E948D0908
:10292000212F30E040E050E019A28E010F5D1F4FD3
:10293000CA01B901A20191010E949617605DF801D8
:1029400062938F01211531054105510589F7BF01BA
:1029500080ED93E00E948D0965E871E080ED93E0E1
:102960000E948D090E942609E8CD80913402909141
:1029700035020E94FA0AE0913602F091370282A5F0
:10298000826082A76AE070E080E090E00E942F10F1
:1029900064E279E080913602909137020E94AD0E98
:1029A00084E299E090932F0280932E020E94691096
:1029B0004B015C01D12CE12C9AE0C92E80E490E01F
:1029C0009DA38CA380910001909101019C012F5F38
:1029D0003F4F30930101209300019FA38EA392ECFF
:1029E00098A78091360290913702DC01D2962D9102
:1029F0003C91D3973BA32AA3EE2089F02E2D30E003
:102A000021503109A901440F551F240F351F01E042
:102A100010E002C0000F111F2A95E2F702C000E08B
:102A200010E020E030E040E050E0BE016E5D7F4FFE
:102A30000E9417070E9469102B013C01F12C809124
:102A40003602909137020E94B005823C89F4FE0163
:102A50003196EF0DF11DEF0DF11DA0913602B091F1
:102A6000370217968D919C91189791838083F394E8
:102A70000E946910DC01CB0184199509A609B709E8
:102A8000C897A105B10520F4B3E0BF15C0F633C067
:102A9000F11031C00E946910DC01CB01881999093D
:102AA000AA09BB0981369A4EA105B10508F008CDE7
:102AB0002D2D30E02F5F3F4F8E2D90E00196289F07
:102AC000B001299F700D389F700D1124675E7F4FF4
:102AD000660F771F072E000C880B990B0E942F1092
:102AE00081E08E0D8370E82E81E08D0D6C2D0E94AB
:102AF0007617D92E63CF712C612C7F1408F040C05B
:102B0000E3ECE8A78091300289A7FE013196E70D3A
:102B1000F11DE70DF11D008111811DA30CA320E023
:102B200030E040E050E0BE016E5D7F4F80913602A4
:102B3000909137020E9417070E9469101B012C0117
:102B40000E946910DC01CB0182199309A409B5091F
:102B5000813E9105A105B10558F48091360290910E
:102B600037020E94B005682EF0E88F13E9CF7F2C62
:102B700065E070E080E090E00E942F107394BDCF7C
:102B800020E8621287CFE0913602F0913702878504
:102B90009089009709F47ECF368520913002321358
:102BA00079CF90932F0280932E02809134029091DE
:102BB00035020E94FA0A6AE070E080E090E00E942C
:102BC0002F1060912E0270912F0280913602909109
:102BD00037020E94AD0E1DA21CA2F1E8F8A787E003
:102BE000F82E08E310E020E030E040E050E0BE01C5
:102BF0006E5D7F4F80913602909137020E941707D9
:102C0000811119C0FA94F1100FC064E279E080914B
:102C10003602909137020E94AD0E84E299E09093C3
:102C20002F0280932E0236CF63E070E080E090E0C8
:102C30000E942F10D6CFE0913602F091370282A584
:102C40008D7F82A73DCC3BA32AA380E88F835C8342
:102C50004B8344325940C9F062E070E080E090E07C
:102C60000E942F1008E310E022E030E0AE014E5D3C
:102C70005F4FBE016F5F7F4F8091360290913702A8
:102C80000E941707811117C008C062E070E080E061
:102C900090E00E942F100B811C8122E030E0AE01F9
:102CA0004E5D5F4FBE016F5F7F4F80913602909106
:102CB00037020E9417070E9469105B016C018AA10C
:102CC0009BA190934502809344028F2D90E09093B6
:102CD00043028093420280913602909137020E9413
:102CE000B0058138B1F00E946910AB01BC014A19EE
:102CF0005B096C097D09E0913602F091370285810C
:102D00009681A0E0B0E084179507A607B70718F7EB
:102D10005ECDAAA1BBA16091330280913102909156
:102D20003202AC0120E0261751F04D5F5F4FFA01EF
:102D3000339730813F1511F02F5FF5CF622FFC01E3
:102D400023E0629FE00DF11D1124F082B283A18384
:102D50002091330262133BCD6F5F6093330270E0CA
:102D60006F5F7F4F9B01220F331F620F731F0E9403
:102D7000F418909332028093310229CDCF93DF93E0
:102D8000E1E9F1E01382128288EE93E0A0E0B0E086
:102D900084839583A683B78385E291E091838083C2
:102DA00085EC90E09587848784EC90E09787868710
:102DB00080EC90E0918B808B81EC90E0938B828B08
:102DC00082EC90E0958B848B86EC90E0978B868BE1
:102DD000118E128E138E148EE0EDF3E013821282A8
:102DE00081E081871486138687E391E09183808355
:102DF000E8EBF3E08AE090E09183808385E090E067
:102E000093838283168280E28783108685E086879B
:102E100085E090E0A0E0B0E0848B958BA68BB78B2B
:102E20001186A6E4B2E0D096FC93EE939F978BE7D1
:102E300092E0909316038093150383E293E09093BE
:102E400022038093210387E193E098969C938E93CD
:102E500097979B961D921D921D921C929E979A96F3
:102E60001C929A9799961C9299971C92CEE2D2E066
:102E7000FF83EE83B987A887DF91CF9108952F92C2
:102E80003F924F925F926F927F928F929F92AF92FA
:102E9000BF92CF92DF92EF92FF920F931F93CF9347
:102EA000DF93CDB7DEB7CA1BDB0B0FB6F894DEBFDE
:102EB0000FBECDBF09942A88398848885F846E8404
:102EC0007D848C849B84AA84B984C884DF80EE804E
:102ED000FD800C811B81AA81B981CE0FD11D0FB657
:102EE000F894DEBF0FBECDBFED010895991B79E0C8
:102EF00004C0991F961708F0961B881F7A95C9F78A
:102F000080950895AA1BBB1B51E107C0AA1FBB1FD8
:102F1000A617B70710F0A61BB70B881F991F5A9565
:102F2000A9F780959095BC01CD010895A1E21A2ED4
:102F3000AA1BBB1BFD010DC0AA1FBB1FEE1FFF1F5D
:102F4000A217B307E407F50720F0A21BB30BE40BAD
:102F5000F50B661F771F881F991F1A9469F76095F4
:102F60007095809590959B01AC01BD01CF010895AE
:102F70002A193B094C095D096E097F09800B910BE9
:102F80000895EE0FFF1F0590F491E02D0994CF9363
:102F9000DF938230910510F482E090E0E091F0033D
:102FA000F091F10320E030E0C0E0D0E0309711F183
:102FB0004081518148175907C0F04817590761F4FB
:102FC00082819381209719F09B838A832BC09093F1
:102FD000F1038093F00326C02115310519F0421743
:102FE000530718F49A01BE01DF01EF010280F3815B
:102FF000E02DDCCF2115310509F1281B390B2430D8
:10300000310590F412968D919C911397611571057D
:1030100021F0FB019383828304C09093F10380939A
:10302000F003FD01329644C0FD01E20FF31F8193CE
:103030009193225031092D933C933AC02091EE0395
:103040003091EF03232B41F42091160130911701A9
:103050003093EF032093EE0320911401309115017A
:103060002115310541F42DB73EB74091180150911B
:103070001901241B350BE091EE03F091EF03E217E9
:10308000F307A0F42E1B3F0B2817390778F0AC018B
:103090004E5F5F4F2417350748F04E0F5F1F509368
:1030A000EF034093EE038193919302C0E0E0F0E0E0
:1030B000CF01DF91CF9108950F931F93CF93DF93AB
:1030C000009709F48CC0FC013297138212820091A0
:1030D000F0031091F1030115110581F42081318174
:1030E000820F931F2091EE033091EF0328173907C9
:1030F00079F5F093EF03E093EE0371C0D80140E05F
:1031000050E0AE17BF0750F412962D913C911397E3
:10311000AD012115310509F1D901F3CF9D01DA0186
:103120003383228360817181860F971F82179307F3
:1031300069F4EC0128813981260F371F2E5F3F4F3C
:10314000318320838A819B8193838283452B29F459
:10315000F093F103E093F00342C01396FC93EE93D7
:103160001297ED01499159919E01240F351FE217E5
:10317000F30771F480819181840F951F0296119657
:103180009C938E938281938113969C938E93129736
:10319000E0E0F0E0D80112968D919C911397009792
:1031A00019F0F8018C01F6CF8D919C9198012E5F5A
:1031B0003F4F820F931F2091EE033091EF032817AA
:1031C000390769F4309729F41092F1031092F00353
:1031D00002C0138212821093EF030093EE03DF917B
:1031E000CF911F910F910895A0E0B0E0EAEFF8E1D0
:1031F0000C944317EC01009721F4CB010E94C717F0
:10320000B8C0FC01E60FF71F9C0122503109E217FC
:10321000F30708F4ACC0D9010D911C911197061762
:103220001707B0F00530110508F49FC0C8010497D6
:103230008617970708F499C002501109061B170B4F
:10324000019311936D937C93CF010E945C188DC004
:103250005B01A01AB10A4C01800E911EA091F003EF
:10326000B091F10340E050E0E12CF12C109709F40B
:103270004AC0A815B905D1F56D907C9011976301EE
:1032800082E0C80ED11CCA14DB0480F1A3014A19E4
:103290005B096A0182E0C80ED11C1296BC9012979D
:1032A0001396AC91B5E0CB16D10440F0B282A38363
:1032B00051834083D9016D937C930AC00E5F1F4FE9
:1032C000C301800F911FF90191838083EB2DFA2FA9
:1032D000E114F10431F0D7011396FC93EE931297A9
:1032E00044C0F093F103E093F0033FC08D919C91B3
:1032F00011974817590708F4AC017D0112960D90FB
:10330000BC91A02DB3CF8091EE039091EF0388156F
:103310009905E1F446175707C8F48091140190917C
:103320001501009741F48DB79EB740911801509157
:103330001901841B950BE817F907C8F4F093EF0304
:10334000E093EE03F901718360830FC0CB010E940B
:10335000C7177C01009759F0A801BE010E94C3194C
:10336000CE010E945C18C70104C0CE0102C080E0FB
:1033700090E0CDB7DEB7EEE00C945F1781E090E00F
:10338000F8940C94DE19FB01DC0102C001900D924F
:1033900041505040D8F708956817790768F4FB0149
:1033A000DC01E40FF51FA40FB51F02C002900E92BE
:1033B00041505040D8F708950C94C319F894FFCFAA
:1033C00001003030302D30302E30300A00303030B7
:1033D0002D300A000000F2038000C33C33CE3EE3F0
:1033E000EC00000000BD082A08550804098608649E
:1033F00008780800000000D0032A08B301B20100D9
:103400000853796E63696E6700776974682050436A
:103410000053796E630A0053796E636564007769BF
:10342000746820504321002A2A4D61737465722A02
:103430002A0052656365697665643A20004E6F64C0
:0834400065733A20000D0A003B
:00000001FF
