:100000000C9412020C947C120C9455120C943A022B
:100010000C943A020C943A020C94B4060C943A02F2
:100020000C943A020C943A020C943A020C943A0260
:100030000C943A020C943A020C943A020C943A0250
:100040000C94E0170C943A020C94F2120C94CC121B
:100050000C943A020C943A020C943A020C943A0230
:100060000C943A020C943A0200407A10F35A00A021
:10007000724E18090010A5D4E80000E87648170071
:1000800000E40B54020000CA9A3B000000E1F505B1
:10009000000080969800000040420F000000A086FB
:1000A00001000000102700000000E803000000002D
:1000B0006400000000000A000000000001000000D1
:1000C00000002C76D888DC674F0823DFC1DFAE59EB
:1000D000E1B1B796E5E3E453C63AE651997696E87E
:1000E000E6C28426EB898C9B62ED407C6FFCEFBC02
:1000F0009C9F40F2BAA56FA5F490055A2AF75C932D
:100100006B6CF9676DC11BFCE0E40D47FEF520E662
:10011000B500D0ED902E0300943577050080841E45
:10012000080000204E0A000000C80C333333330FA0
:10013000986E12831141EF8D2114893BE65516CF3D
:10014000FEE6DB18D1844B381BF77C1D901DA4BB49
:10015000E424203284725E228100C9F124ECA1E5FE
:100160003D2700030C0F30333C3FC0C3CCCFF0F32E
:10017000FCFFAED580A83FD300408D142002A1C85B
:10018000DA12817FD9F1DB40A4A6AF5374616E64AB
:10019000696E672062792E2E2E0053746172746925
:1001A0006E672E2E00000005072061000000000091
:1001B00000005F00000007000700147F147F142474
:1001C0002A7F2A12231308646236495522500005FB
:1001D000030000001C2241000041221C00082A1CD0
:1001E0002A0808083E0808005030000008080808DF
:1001F00008006060000020100804023E5149453E9E
:1002000000427F400042615149462141454B31182F
:1002100014127F1027454545393C4A494930017140
:100220000905033649494936064949291E0036362B
:100230000000005636000000081422411414141463
:100240001441221408000201510906324979413E45
:100250007E1111117E7F494949363E414141227F3D
:100260004141221C7F494949417F090901013E4121
:100270004151327F0808087F00417F410020404102
:100280003F017F081422417F404040407F0204022A
:100290007F7F0408107F3E4141413E7F09090906E6
:1002A0003E4151215E7F091929464649494931019C
:1002B000017F01013F4040403F1F2040201F7F2021
:1002C00018207F6314081463030478040361514900
:1002D000454300007F4141020408102041417F0056
:1002E00000040201020440404040400001020400BA
:1002F00020545454787F4844443838444444203887
:100300004444487F3854545418087E0901020814A4
:1003100054543C7F0804047800447D40002040444D
:100320003D00007F10284400417F40007C041804F9
:10033000787C0804047838444444387C1414140845
:10034000081414187C7C08040408485454542004ED
:100350003F4440203C4040207C1C2040201C3C402E
:1003600030403C44281028440C5050503C446454C5
:100370004C44000836410000007F00000041360870
:100380000008082A1C08081C2A0808000609090693
:1003900072011980400000000000240027002A009C
:1003A00000000000250028002B00000000080002CB
:1003B0000100000304070000000000000000005ED0
:1003C000BCE2613FDD83C29C7E20A3FD1F41009DF6
:1003D00023BE46DB65F88C11AF32CA57E9740001C1
:1003E000020304051112131415160A0B0C0D0E0F3F
:1003F0000000000023002600290004040404040473
:1004000004040202020202020303030303030102C3
:100410000408102040800102040810200102040892
:100420001020791D11241FBECFEFD8E0DEBFCDBF55
:1004300024E0A8EFB1E001C01D92AA38B207E1F7AD
:1004400011E0A0E0B1E0EAE8F8E402C005900D9206
:10045000A83FB107D9F712E0C2E1D2E004C021976A
:10046000FE010E940223C131D107C9F70E942A1858
:100470000C9443240C940000CF93DF93DC01FB0128
:10048000EC01C359DE4F688179812296988182817F
:1004900040815181823028F0BA0181E0838390E06D
:1004A00027C0ED01C059DE4F28813981EA01C223FE
:1004B000D323D2960D90BC91A02DCA17DB07C1F4AF
:1004C000C9018095909563E0880F991F6A95E1F7BF
:1004D00084239523892B51F083E0220F331F8A95C3
:1004E000E1F72760BA016223732301C0BA0195E0E6
:1004F00071836083928381E0DF91CF910895CF93E0
:10050000DF93EC019C818E81981758F4E881F98182
:100510000084F185E02D42E0CE0109958C818F5F4A
:100520008C83DF91CF910895089581E08093F90144
:100530000895089580E090E008958F929F92AF9281
:10054000BF92CF92DF92EF92FF920F931F93CF93C0
:10055000DF93EC017B01CCA8D12C86010850110956
:10056000DB0116969C918CE6890F833020F0983C35
:1005700009F0CFC003C0943909F4E4C08BE6890FB9
:10058000823018F0983C09F08EC06E0159EDC50E0E
:10059000D11CD6012D913C91A801420F531F413926
:1005A000510520F0C852DF4F1882B1C05E01B8ED8E
:1005B000AB0EB11CF5018081882309F415C1963971
:1005C00029F0D70117969C919813A1C0FE01EB5218
:1005D000FF4F40815181F701848195814817590768
:1005E00009F095C04E01FBED8F0E911CD4018D9149
:1005F0009C91A801BE01615F7F4F820F931F0E94F3
:100600003A24F60180819181080F191F118300831C
:10061000D70116968C91863929F0F5018081815099
:10062000808373C0D5011C92F7018781FE01E952D6
:10063000FF4F8083833809F483C07E01FFECEF0E07
:10064000F11CF701A081B181CE018A1B9B0B8B535A
:100650009F4F80179107F8F032968AE001900D9233
:100660008A95E1F7D7018D919C91F40160817181A8
:10067000D6014D915C910A960E943A24F601808140
:1006800091810A96D7012D913C911197820F931F6A
:100690008D939C933AC08FA598A90E941F158AA597
:1006A00081608AA734C07E01BFECEB0EF11CF7011C
:1006B000A081B181CE01C5969D01281B390BC901CE
:1006C000800F911F8B39910510F5E85CF10988E0E6
:1006D00001900D928A95E1F7D701ED91FC91119768
:1006E000118700878D919C91BE01615F7F4FA801AA
:1006F0000A960E943A24B2E0CB0ED11CF701808109
:100700009181C80ED91ED182C08281E06DC080E087
:100710006BC0933841F6DE01AF52BF4FFE013796F2
:1007200088E001900D928A95E1F7FE01E552FF4FB6
:10073000CE010F9691838083C752DF4F19830883C0
:1007400082E052C0F7018781873008F02BCFFE018D
:10075000EB52FF4F40815181D70114962D913C916E
:10076000159734976F014217530739F4408151812F
:100770002D913C914217530741F2F8E18F9FC00140
:100780001124FE01E153FF4F20813181AE01421B54
:10079000530B9A012B533F4F281739073CF48AA576
:1007A00081608AA78FA598A90E941F15FE01379620
:1007B00088E0D60101900D928A95E1F7FE01E5529D
:1007C000FF4FBE01615F7F4FA801808191810E9430
:1007D0003A24FE01E752FF4F11830083C852DF4FD6
:1007E00088818150888391CFDF91CF911F910F91A4
:1007F000FF90EF90DF90CF90BF90AF909F908F9041
:100800000895FC0120813181828193812817390765
:1008100019F0822F0C94CC0D0895CF93DF93EC0147
:100820009CB59F7D9CBD9CB5937F9CBD9CB59C7FDA
:100830009CBD9DB591609DBD8A810E94CC0D8C8927
:100840009D89DF91CF910C94380E60E00C940D04DB
:10085000CF93DF93CDB7DEB728970FB6F894DEBFFE
:100860000FBECDBFAC019CEC99839A839B839C8384
:100870009D831E821F8218869A01E1E021153105B1
:10088000C9F0611103C04115510569F4D901A77080
:10089000BB27A05EBE4F8C91A1E0B0E0AC0FBD1FA6
:1008A000AE0FB11D8C9383E0369527958A95E1F7BD
:1008B000EF5FE4CF611102C0452B39F4E62FF0E081
:1008C000E05EFE4F8081898305C0F0E0E15EFE4F6F
:1008D00080818A8329813A814B815C816D817E810F
:1008E0008F81988528960FB6F894DEBF0FBECDBFD6
:1008F000DF91CF910895DC01ED91FC910084F185A9
:10090000E02D40E009940F931F93CF938C01FC01DD
:1009100064839085C62FC90F6C2F6F70C8010E9429
:100920007B046C2F62956F706061C801CF911F913D
:100930000F910C947B040F931F93CF93DF931F921F
:10094000CDB7DEB78C01FC018681681728F4C80199
:1009500049830E9483044981F801878186958695A1
:100960008695481758F44583642F606BC8010F9033
:10097000DF91CF911F910F910C947B040F90DF9129
:10098000CF911F910F910895CF92DF92EF92FF9236
:100990000F931F93CF93DF93EC01F62EC42ED22E2C
:1009A0008F81869586958695081710F00FEF080FB2
:1009B0001D2D011780F0412F6F2DCE010E949B0449
:1009C000EF2CCE1430F060E0CE010E947F02E39461
:1009D000F8CF1F5FEECF4D2D6F2DCE01DF91CF9160
:1009E0001F910F91FF90EF90DF90CF900C949B049C
:1009F0002F923F924F925F926F927F928F929F922F
:100A0000AF92BF92CF92DF92EF92FF920F931F931C
:100A1000CF93DF93CDB7DEB727970FB6F894DEBF3D
:100A20000FBECDBFDC011B960D911C911C970115CB
:100A3000110509F462C19F838E83F801B491319648
:100A40004491319654903196A491EA2EF12CF7E01E
:100A5000EF0EF11C23E0F594E7942A95E1F7EB8281
:100A6000F801349674913196E491671758F0862F07
:100A700090E02E2F30E0F901E70FF11D8E179F0750
:100A80000CF473C06D3069F4AE81BF8116968C9101
:100A9000882309F467C060E08E819F810E948304EF
:100AA00061C06A3009F029C1EE81FF8181856581CD
:100AB000D62E8E9DD00C112487818695869586959D
:100AC000D81630F08285882319F082E08287D12CF5
:100AD0004D2D60E08E819F810E949B04AE81BF817D
:100AE0001A968C911A97823008F43CC015962C9176
:100AF00015971B96ED91FC911C97309741F033961A
:100B0000E49119960C91E09FE02D112401C0E0E0E2
:100B10008FEF820F0E2F10E0095F1F4F93E01595A6
:100B200007959A95E1F7080FEE81FF8146814150C4
:100B30006481CF010E94C404AE81BF8119968C915B
:100B400019976D2D8E9D600D1124660F660F660F2F
:100B500017968C91861708F460E060648E819F81FF
:100B60000E947B0481E090E0CAC050E05B2BC8018A
:100B70000696671BEE81FF81F185F98342305105AE
:100B800088F4452B09F019825E9C90015F9C300D22
:100B90001124629F8001639F100D1124080F191FFB
:100BA000412C24C0EA2FE77021F048E0442E4E1A71
:100BB00001C0412CA82FFC0140E050E07E2F7A1BA1
:100BC000761728F47491470F511D3196F7CFFC0129
:100BD000E60FF11D54904E9D80014F9D100D5E9DBE
:100BE000100D1124020F131F080F191FAE81BF81B2
:100BF0001496BC91BC83EE81FF813580652C712CED
:100C0000CC24C394D12C812C912C7FEF7C0D7A8342
:100C10008B81781708F05FC0212CAE81BF811996B7
:100C20008C91281608F051C07A81711102C02220DF
:100C300051F0AE81BF8115964C9115974F5F6C8135
:100C4000CD010E949B04A12CB12CA51488F5F501BF
:100C5000E80DF91DE00FF11F2491442061F0CE143E
:100C6000DF0449F4E22FF0E0042C02C0F595E7958B
:100C70000A94E2F72E2FEE81FF818185823079F48C
:100C8000E22F2110E295EF70F0E0EE59FE4F249133
:100C9000622F8E819F812D830E947F022D81622F82
:100CA0008E819F810E947F02FFEFAF1ABF0ACDCFD6
:100CB000B12C7981B71639F060E08E819F810E9456
:100CC0007F02B394F6CF2394A8CF860C971CBFEF76
:100CD000CB1ADB0A9ACFAE81BF8117968C911797FA
:100CE000869586958695381608F03CCF15963C92E9
:100CF0001597632D606BCD0133CF80E090E0279690
:100D00000FB6F894DEBF0FBECDBFDF91CF911F911C
:100D10000F91FF90EF90DF90CF90BF90AF909F909A
:100D20008F907F906F905F904F903F902F9008959D
:100D30000F93CF93DF93EC010F81069506950695EF
:100D400001504E81415020E060E00E94C40481E0E7
:100D50009A85911101C080E08A8760E4CE01DF911D
:100D6000CF910F910C947B041F920F920FB60F92AC
:100D700011248F9381E08093F8018F910F900FBE23
:100D80000F901F901895DC01862F262F30E0F90177
:100D9000E650FC4FE491F0E0EE0FFF1FE056FC4FF1
:100DA0004591549113965C934E931297F901E25F2B
:100DB000FB4FE491EC93E0951196EC9361E00C9479
:100DC000FC0D8EBD00000DB407FEFDCF8EB508955D
:100DD0006F927F928F929F92AF92BF92CF92DF924B
:100DE000EF92FF920F931F93CF93DF93CDB7DEB7B0
:100DF00028970FB6F894DEBF0FBECDBF8C01CB0194
:100E0000D22E642F0E94280439014A015B017C0123
:100E1000F80182A582FD04C087A590A90E941F1534
:100E2000F80187A590A9DD2011F060E001C061E024
:100E30000E944E16F801C7A4D0A869827A828B82DC
:100E40009C82AD82BE82EF82F886F6012685AE01D5
:100E50004F5F5F4F6AE0C6010E947414F601268559
:100E6000AE014F5F5F4F60E1C6010E947414F6014E
:100E7000478161E1C6010E945014F801B4A8C7A4DB
:100E8000D0A86FEFC6010E94311480FF0DC06FEF34
:100E9000C6010E94311484FFF4CF40E167E0C6012F
:100EA0000E945014F12C30C0F601F780EF2CBF14D3
:100EB00008F4EB2CF6018085811102C0FE1801C0F8
:100EC000F12CC6010E94250480EA0E94E106580127
:100ED000F7E0AF0EB11CEA0CEA1431F0F501819194
:100EE0005F010E94E106F8CFFF2029F080E00E9418
:100EF000E106FA94F9CFC6010E942E1461E0C60102
:100F00000E940104FF24F394F80182A582FD0FC022
:100F1000418152816381748187A590A90E949017B5
:100F2000F82E60E0F80187A590A90E944E168F2D3B
:100F300028960FB6F894DEBF0FBECDBFDF91CF91DC
:100F40001F910F91FF90EF90DF90CF90BF90AF90E7
:100F50009F908F907F906F9008953F924F925F92F5
:100F60006F927F928F929F92AF92BF92CF92DF92B9
:100F7000EF92FF920F931F93CF93DF93EC019AA50B
:100F8000892F827091FD17C0FE01E153FF4FAE0122
:100F90004B5C5F4F90FD07C020813181241B350BD6
:100FA0002937310544F0208131814217530708F475
:100FB00029C19E7F9AA78E01095F1F4F502EEE24F4
:100FC000E394F12C6E0181E9C81A8EEFD80A74E21D
:100FD000A72E79E0B72E8FA498A8F4018081918183
:100FE0008F3F910511F480E00DC1F401828193815E
:100FF0008F3F9105C1F367E1C4010E94AB14982FA4
:101000009170792E80FDEFCF6FEFC4010E943114F3
:101010008FA498A8C4010E94250480E60E94E106DE
:101020008FEF0E94E106682EC4010E942E14F0E2A8
:10103000F61508F056C062EEC4010E94311462E059
:1010400070E080E090E00E94410E7CAA97E0971546
:1010500038F06AE070E080E090E00E94410EBBCF83
:101060008FA498A8F4018781472C871508F4482E8F
:10107000F4019085911103C0382E341801C0312C31
:10108000C4010E94250481E60E94E1063801450C56
:10109000461439F08FEF0E94E106F30181933F017E
:1010A000F7CF732C772029F08FEF0E94E1067A9416
:1010B000F9CFC4010E942E1440E767E0C4010E94EA
:1010C000501469857A85CB01009769F0282F277025
:1010D000263008F080CF53E0969587955A95E1F732
:1010E000F3CF762CB2CF8D852AA93BA9621773075F
:1010F000E1F5823809F46FCF803881F464327940A9
:10110000D1F0BA86A98642E064E279E0CE010E947D
:1011100014096AE070E080E090E040C0833C59F43C
:101120006115710541F078876F831A86198640E052
:1011300060E070E063C099A5992319F087FF0CC0A7
:1011400002C0813C49F49CE6980F933028F0883C1B
:1011500019F0833809F056C0B801CE010E949D02F3
:10116000823009F038CF83E84DC06034710509F052
:1011700044C0823CC9F48AA583FD2DCF243289E086
:10118000380709F428CF8F8198859A87898738870F
:101190002F83F601608170E080E090E00E94410EB4
:1011A00069857A8542E02AC0B801CE010E949D027D
:1011B000982E88818823E9F029A9222379F030E04C
:1011C00021503109C901880F991F280F391FB70114
:1011D00002C0660F771F2A95E2F702C060E070E058
:1011E00083E0660F771F8A95E1F744E0CE010E9405
:1011F0001409F2E09F12EFCEB6CF41E0CE010E947B
:101200001409E9CEDF91CF911F910F91FF90EF90DC
:10121000DF90CF90BF90AF909F908F907F906F9016
:101220005F904F903F900895CF92DF92EF92FF92A0
:101230000F931F93CF93DF9300D000D0CDB7DEB7CD
:10124000FC0195859B012115310561F0822F877086
:10125000863030F483E0369527958A95E1F7F3CF11
:1012600080E097C09154EE24E3949F3708F0E12C7E
:10127000F42E6B018F0119821A821B821C827A83E1
:1012800069834B83BE016F5F7F4FCF010E943C0299
:1012900069817A812C814B81C8010E94E806F1E0C6
:1012A000FF1227C0811102C0F12C6AC089819A8186
:1012B0008C159D0501F5EE20F1F081ECF801858794
:1012C00087819085928781879A838983FB821C829C
:1012D000BE016F5F7F4FC8010E943C0288E0F801A9
:1012E00084AB69817A812C814B81C8010E94E80618
:1012F00002C08823C9F289819A818C159D0519F451
:10130000FF24F3943DC0FF2019F0F3E0FF12F8CF63
:10131000EE20B1F3F80182A582FF11C04181528114
:101320006381748187A590A90E949017F80182A516
:101330008B7F82A760E087A590A90E944E16F801D6
:1013400087A590A90E9454150E947B0E6B017C0119
:10135000C8010E94AD07813C99F20E947B0EAB014F
:10136000BC014C195D096E097F09F80185819681E0
:10137000A0E0B0E084179507A607B70748F794CF19
:10138000F80182A582FD04C087A590A90E9454158A
:101390008F2D0F900F900F900F90DF91CF911F9195
:1013A0000F91FF90EF90DF90CF900895EF92FF9212
:1013B0000F931F93CF93DF93EC017B01BA018AA9AE
:1013C0009BA9F70191838083DE01179688E0019045
:1013D0000D928A95E1F72115310529F0A901CE0179
:1013E0000F960E943A24F701628173810833110538
:1013F00061F06034710511F444E001C043E060170E
:10140000710709F442E0B80101C040E0CE01DF916C
:10141000CF911F910F91FF90EF900C9414092F9290
:101420003F924F925F926F927F928F929F92AF9274
:10143000BF92CF92DF92EF92FF920F931F93CF93C1
:10144000DF93EC017B015A01690148010E947B0E88
:101450004BA45CA46DA47EA4DC01CB018419950986
:10146000A609B7094997A105B10528F4CE010E9444
:10147000AD0787FFEBCF8CE891E00197F1F789E1A9
:10148000C816D104B0F488E08C0D8CAB84019601B1
:10149000A501B701CE010E94D609182F882311F0AB
:1014A00011E092C00E947B0E6BA77CA78DA79EA720
:1014B0008BC0E1E9CE16D10408F085C0C60168E111
:1014C00070E00E94B82221E0892B09F420E0C601D7
:1014D00068E170E00E94B822722E760EF7018281D8
:1014E00093818034910539F08AA584608AA78FA5FD
:1014F00098A90E941F15F7014680512C612C84E9A0
:10150000282E96E9392EF7017782F1E07F1204C088
:10151000F7013682478208C0611003C0F7012682B6
:1015200003C085E9F7018683E8E16E9EA0011124DE
:101530009601241B350B2931310510F028E130E0EC
:1015400088E0820F8CAB4A0D5B1D8401B701CE0190
:101550000E94D609182F81110BC062E070E080E074
:1015600090E00E94410E5394F2E0F51560F606C03B
:101570007A946394772011F0512CC5CFF7014682FD
:101580008AA582FF12C049815A816B817C818FA517
:1015900098A90E949017182F8FA598A90E945415FA
:1015A00060E08FA598A90E944E168AA58B7F8AA716
:1015B000112349F0772009F473CF0E947B0E6BA7AB
:1015C0007CA78DA79EA710E0812FDF91CF911F915F
:1015D0000F91FF90EF90DF90CF90BF90AF909F90D2
:1015E0008F907F906F905F904F903F902F900895D5
:1015F000CF92DF92EF92FF920F931F93CF93DF93DF
:10160000CDB7DEB728970FB6F894DEBF0FBECDBFBB
:101610007C01162F6A018091AC029091AD02843258
:10162000994039F10E947B0E8091AC029091AD02FD
:1016300084329940F1F01C821B82E0911801F091F4
:101640001901CF0101969093190180931801FE832F
:10165000ED831F8308E310E09601A701BE016F5FD1
:101660007F4F8091B4029091B5020E940F0A8111C0
:1016700010C084E0F82E92E8E92EFA94FF2009F4D5
:1016800042C08091AC029091AD028432994021F425
:101690003AC081E090E041C00E94341067E180913F
:1016A000B2029091B3020E94AB1481FD34C08091CC
:1016B000B4029091B502FC0122A520FD2CC01C8231
:1016C0001B822091180130911901A9014F5F5F4FD2
:1016D00050931901409318013E832D83EF8208E354
:1016E00010E020E030E040E050E0BE016F5F7F4F4F
:1016F0000E940F0A81110FC067E670E080E090E061
:101700000E94410EBACF8091B2029091B3020E9422
:101710001F150E94870E80E090E028960FB6F8947F
:10172000DEBF0FBECDBFDF91CF911F910F91FF9014
:10173000EF90DF90CF900895CF93DF93EC01862F49
:10174000F894EB89FC892081442319F09989922B24
:1017500002C09A8992239083789490E59CBD91E091
:101760009DBDF894EF85F88920819E859223908312
:1017700078940E94E106F894EF85F88990818D8530
:10178000892B80837894DF91CF910895833081F005
:1017900028F4813099F08230A1F008958730A9F0C3
:1017A0008830B9F08430D1F4809180008F7D03C0FF
:1017B000809180008F7780938000089584B58F7723
:1017C00002C084B58F7D84BD08958091B0008F776D
:1017D00003C08091B0008F7D8093B00008953FB723
:1017E000F89480910A0290910B02A0910C02B091A2
:1017F0000D0226B5A89B05C02F3F19F00196A11D2B
:10180000B11D3FBFBA2FA92F982F8827820F911D96
:10181000A11DB11DBC01CD0143E0660F771F881FDC
:10182000991F4A95D1F70895AF92BF92CF92DF9258
:10183000EF92FF920F931F93CF93DF931F92CDB739
:10184000DEB75C01D62EE72EFC018585811105C02F
:10185000C5010E94FD13811106C0F501138615868E
:10186000148680E065C040E060EFC5010E948E13E1
:1018700001E0F12CC12C11E0C5010E943B13682F3F
:10188000C50169830E943B136981613019F481307D
:10189000B9F433C04F2D50E068131BC0F5018385A8
:1018A000181730F4E40FF51F8381802349F402C038
:1018B000181731F060E0193058F4F501148708C0AA
:1018C000F501EF0DF11D8381802B838361E009C059
:1018D000C12EF501E40FF51F9381802F8095892398
:1018E0008383C5010E945F131F5F000F11F4F394FF
:1018F00001E0F7E0FF1508F0BFCF113408F4ADCFD9
:10190000F501C386C11002C081E08587F50183819E
:10191000882309F4A2CFD5011396ED2DFE2D950154
:10192000255F3F4F8D918193A217B307D9F781E0CF
:101930000F90DF91CF911F910F91FF90EF90DF906B
:10194000CF90BF90AF900895AF92BF92CF92DF92A9
:10195000EF92FF920F931F93CF93DF938B01BC0104
:101960008091F7029091F8020E94D01340E06EEB54
:101970008091F7029091F8020E948E13E8016801AD
:1019800089E0C80ED11CA090F702B090F80288E060
:10199000E82EF12C01E010E0C5010E943B138111FB
:1019A000102B000F81E0E81AF108B1F71993CC155C
:1019B000DD0549F78091F7029091F8020E94FD132E
:1019C00091E0813009F090E0892FDF91CF911F9154
:1019D0000F91FF90EF90DF90CF90BF90AF90089560
:1019E0000F931F93CF93DF93CDB7DEB729970FB631
:1019F000F894DEBF0FBECDBFFC012081203161F124
:101A00008C018091F7029091F8020E94FD138823C7
:101A100009F1BE016F5F7F4FC8010E94A40C8823AB
:101A2000C9F068E0CE0101960E94241399858913BC
:101A300011C08D818F3361F020F48F3159F489E02A
:101A40000CC08F3519F08F3739F004C08BE005C01A
:101A50008AE003C080E001C08CE029960FB6F894BC
:101A6000DEBF0FBECDBFDF91CF911F910F910895C3
:101A70000F931F93CF93DF938C01C0E0D0E0F80168
:101A8000EC0FFD1F6491662371F0E0910F02F0915D
:101A900010020190F081E02D8FE092E00995892BF2
:101AA00011F02196ECCF6BED71E08FE092E00E9497
:101AB000A3128C0F9D1FDF91CF911F910F9108955D
:101AC0008F929F92AF92BF920F931F93CF93DF930A
:101AD000CDB7DEB7A1970FB6F894DEBF0FBECDBF6E
:101AE00019A2423008F44AE08E010F5D1F4F842E88
:101AF000912CA12CB12CA50194010E94E022E62F8B
:101B0000B901CA0101501109EA3014F4E05D01C0C5
:101B1000E95CD801EC93232B242B252B61F7B8012A
:101B20008FE092E00E94A312A1960FB6F894DEBF58
:101B30000FBECDBFDF91CF911F910F91BF90AF909E
:101B40009F908F900895CF93DF93282F30E0F90175
:101B5000E655FC4F8491F901E25FFB4FD491F90106
:101B6000E650FC4FC491CC2391F081110E94C60B2A
:101B7000EC2FF0E0EE0FFF1FE051FC4FA591B49168
:101B8000EC91ED2381E090E021F480E002C080E060
:101B900090E0DF91CF9108951F93CF93DF93282F8B
:101BA00030E0F901E655FC4F8491F901E25FFB4F0B
:101BB000D491F901E650FC4FC491CC23C9F0162F03
:101BC00081110E94C60BEC2FF0E0EE0FFF1FE056D4
:101BD000FC4FA591B4918FB7F894111105C09C9159
:101BE000ED2FE095E92302C0EC91ED2BEC938FBF34
:101BF000DF91CF911F910895CF93DF9390E0FC0187
:101C0000E25FFB4F2491FC01E650FC4F8491882356
:101C100061F190E0880F991FFC01EA56FC4FC591D5
:101C2000D491FC01E056FC4FA591B491611109C01B
:101C30009FB7F8948881209582238883EC912E2386
:101C40000BC0623061F49FB7F8943881822F809581
:101C500083238883EC912E2B2C939FBF06C08FB7D4
:101C6000F894E8812E2B28838FBFDF91CF910895C0
:101C70008330910528F0880F991F04970197F1F799
:101C800008958F929F92AF92BF92CF92DF92EF9280
:101C9000FF926B017C010E94EF0B4B015C01C114B0
:101CA000D104E104F104F1F00E94EF0BDC01CB015F
:101CB00088199909AA09BB09883E9340A105B10575
:101CC00070F321E0C21AD108E108F10888EE880E0D
:101CD00083E0981EA11CB11CC114D104E104F104DD
:101CE00019F7DDCFFF90EF90DF90CF90BF90AF90CE
:101CF0009F908F9008952FB7F8946091060270918D
:101D0000070280910802909109022FBF08952F9237
:101D10003F924F925F926F927F928F929F92AF927B
:101D2000BF92CF92DF92EF92FF920F931F93CF93C8
:101D3000DF93CDB7DEB761970FB6F894DEBF0FBE65
:101D4000CDBF67E18091B2029091B3020E94AB14C3
:101D500080FD03C080E090E06EC18091B20290915E
:101D6000B3020E941F15E091B402F091B50282A562
:101D7000826082A76AE070E080E090E00E94410EFD
:101D800064E279E08091B4029091B5020E946316FA
:101D900084E299E09093AD028093AC020E947B0EA6
:101DA0002B013C01C12CE12C90E4292E312C3C86E6
:101DB0002B8680911801909119019C012F5F3F4F54
:101DC00030931901209318019E878D8782EC8F87AD
:101DD0008091B4029091B502FC0122A933A93A87FF
:101DE0002987EE2089F02E2D30E021503109A901FC
:101DF000440F551F240F351F01E010E002C0000FF3
:101E0000111F2A95E2F702C000E010E020E030E068
:101E100040E050E0BE01675F7F4F0E940F0A0E94C2
:101E20007B0E4B015C01F12C8091B4029091B502C4
:101E30000E94AD07823C89F4FE013196EF0DF11D41
:101E4000EF0DF11DA091B402B091B50217968D91DE
:101E50009C91189791838083F3940E947B0EDC0100
:101E6000CB0188199909AA09BB09C897A105B10531
:101E700020F4F3E0FF15C0F633C0F11031C00E942A
:101E80007B0EDC01CB0184199509A609B7098136BF
:101E90009A4EA105B10508F05DCF2C2D30E02F5FE3
:101EA0003F4F8E2D90E00196289FB001299F700D25
:101EB000389F700D1124675E7F4F660F771F072EC6
:101EC000000C880B990B0E94410E81E08E0D8370EF
:101ED000E82E81E08C0D6AE00E94AC22C92E67CF0B
:101EE000D12C198ADF1408F03FC023EC2F87809192
:101EF000AE02888BFE013196ED0DF11DED0DF11D49
:101F0000008111811C870B8720E030E040E050E029
:101F1000BE01675F7F4F8091B4029091B5020E942D
:101F20000F0A0E947B0E4B015C010E947B0EDC01BC
:101F3000CB0188199909AA09BB09813E9105A10520
:101F4000B10550F48091B4029091B5020E94AD07A2
:101F5000898B803851F7DF2C65E070E080E090E0FD
:101F60000E94410ED394BECF8989803809F087CF73
:101F7000E091B402F091B50287859089009709F449
:101F80007ECF36852091AE02321379CF9093AD0289
:101F90008093AC028091B2029091B3020E941F150F
:101FA0006AE070E080E090E00E94410E6091AC0237
:101FB0007091AD028091B4029091B5020E946316B7
:101FC0001C861B86E1E8EF8787E0F82E08E310E027
:101FD00020E030E040E050E0BE01675F7F4F80913D
:101FE000B4029091B5020E940F0A811119C0FA94AF
:101FF000F1100FC064E279E08091B4029091B502D3
:102000000E94631684E299E09093AD028093AC0243
:1020100036CF63E070E080E090E00E94410ED6CFC2
:10202000E091B402F091B50282A58D7F82A78091E4
:10203000AC029091AD0261960FB6F894DEBF0FBE70
:10204000CDBFDF91CF911F910F91FF90EF90DF9067
:10205000CF90BF90AF909F908F907F906F905F9048
:102060004F903F902F9008958F929F92AF92BF9282
:10207000DF92EF92FF920F931F93CF93DF93CDB731
:10208000DEB72A970FB6F894DEBF0FBECDBF8091A2
:10209000B4029091B5020E94AD07D82E8091AC0297
:1020A0009091AD02843229E0920709F4E2C033EC4A
:1020B000D31203C021E02093B6022091AE02211179
:1020C000D8C02D2D2D7F243C09F0B0C0E091B40282
:1020D000F091B5027F01A7E0EA0EF11C278130855F
:1020E000328721872785B4ECDB1228C04091B102EA
:1020F0008091AF029091B00230E0341789F05C011A
:102100000396BC0163507109DB015C91521306C058
:10211000D50111968D919C91129704C03F5FEDCF30
:102120008FEF9FEF9A83898308E310E022E030E08D
:10213000AE014F5F5F4FB701CF0175C030E03A8706
:1021400029872115310509F45EC0892BC1F450910E
:10215000B1028091AF029091B00240E0451709F4BE
:102160004FC0FC010396DC0112976D917C916217C0
:10217000730719F4208130E048C04F5FEFCF1C8215
:102180001B8280911801909119019C012F5F3F4F94
:1021900030931901209318019E838D8386EC8F83E1
:1021A00008E310E022E030E0AE01475F5F4FBE0180
:1021B0006F5F7F4FCF010E940F0A882309F10E94B1
:1021C0007B0E4B015C018091B4029091B5020E949C
:1021D000AD07863C71F00E947B0EDC01CB018819B3
:1021E0009909AA09BB09853F9140A105B10558F39A
:1021F00007C0E091B402F091B5022785308905C08F
:102200002FEF3FEF02C020E030E03A83298308E35C
:1022100010E022E030E0AE014F5F5F4FB7018091E8
:10222000B4029091B5020E940F0A23C035ECD3127C
:1022300020C0A091B402B091B5022091AF023091BC
:10224000B00280E09091B102891798F4F90193E00F
:10225000899FE00DF11D11246181728117964D91C6
:102260005C9118976417750711F4128211828F5FC1
:10227000E9CF8D2D2A960FB6F894DEBF0FBECDBFE5
:10228000DF91CF911F910F91FF90EF90DF90BF9062
:10229000AF909F908F9008950895CF92DF92EF9224
:1022A000FF920F931F93CF93DF936C017A018B0101
:1022B000C0E0D0E0CE15DF0589F0D8016D918D0129
:1022C000D601ED91FC910190F081E02DC6010995B8
:1022D000892B11F47E0102C02196ECCFC701DF915A
:1022E000CF911F910F91FF90EF90DF90CF900895C5
:1022F000FC01538D448D252F30E0842F90E0821B0C
:10230000930B541710F0CF96089501970895FC0190
:10231000918D828D981761F0828DDF01A80FB11D1C
:102320005D968C91928D9F5F9F73928F90E0089540
:102330008FEF9FEF0895FC01918D828D981731F0FA
:10234000828DE80FF11D858D90E008958FEF9FEF4E
:102350000895FC01918D228D892F90E0805C9F4F24
:10236000821B91098F73992708958FE092E00E9454
:10237000A91121E0892B09F420E0822F0895FC01A6
:10238000848DDF01A80FB11DA35ABF4F2C91848DFE
:1023900090E001968F739927848FA689B7892C9333
:1023A000A089B1898C9180648C93938D848D9813CE
:1023B00006C00288F389E02D80818F7D8083089597
:1023C000EF92FF920F931F93CF93DF93EC0181E085
:1023D000888F9B8D8C8D981305C0E889F989808141
:1023E00085FD24C0F62E0B8D10E00F5F1F4F0F737D
:1023F0001127E02E8C8DE8120CC00FB607FCFACF27
:10240000E889F989808185FFF5CFCE010E94BF114F
:10241000F1CF8B8DFE01E80FF11DE35AFF4FF082E3
:102420000B8FEA89FB898081806207C0EE89FF8972
:102430006083E889F98980818064808381E090E00D
:10244000DF91CF911F910F91FF90EF900895CF935F
:10245000DF93EC01888D8823C9F0EA89FB898081AC
:1024600085FD05C0A889B9898C9186FD0FC00FB67E
:1024700007FCF5CF808185FFF2CFA889B9898C91BF
:1024800085FFEDCFCE010E94BF11E7CFDF91CF9145
:10249000089580E090E0892B29F00E94B511811108
:1024A0000C94000008950E9435241F920F920FB6DD
:1024B0000F9211242F933F934F935F936F937F93CA
:1024C0008F939F93AF93BF93EF93FF93E09102019C
:1024D000F09103010995FF91EF91BF91AF919F9109
:1024E0008F917F916F915F914F913F912F910F90BD
:1024F0000FBE0F901F9018951F920F920FB60F925C
:1025000011242F933F934F935F936F937F938F93F8
:102510009F93AF93BF93EF93FF93E0910001F091EE
:1025200001010995FF91EF91BF91AF919F918F911B
:102530007F916F915F914F913F912F910F900FBEBF
:102540000F901F9018956115710579F0FB010190AE
:102550000020E9F73197AF01461B570BDC01ED91E5
:10256000FC910280F381E02D099480E090E00895D1
:102570000F931F93CF93DF93EC010E94A3128C0162
:102580006BED71E0CE010E94A312800F911FDF91CD
:10259000CF911F910F9108951F920F920FB60F9236
:1025A00011242F933F934F935F936F937F938F9358
:1025B0009F93AF93BF93EF93FF938FE092E00E94BE
:1025C000BF11FF91EF91BF91AF919F918F917F913B
:1025D0006F915F914F913F912F910F900FBE0F9090
:1025E0001F9018951F920F920FB60F9211242F93E0
:1025F0008F939F93EF93FF93E0911F02F09120023E
:102600008081E0912502F091260282FD12C0908126
:10261000809128028F5F8F7320912902821751F0D9
:10262000E0912802F0E0E15FFD4F958F8093280252
:1026300001C08081FF91EF919F918F912F910F9019
:102640000FBE0F901F901895DC0180E0615090F054
:102650009D919827E92FEF70F0E0E254FC4F249110
:1026600092959F70E92FF0E0E253FC4FE4918E2F9A
:102670008227ECCF0895FC0190810180F281E02D4A
:10268000F8948181892B81832281892F8095282349
:102690002283A2E0B0E01197F1F7218182238183A8
:1026A000A0E1B0E01197F1F780817894E6E6F0E0E0
:1026B0003197F1F7982381E009F480E00895FC0157
:1026C00090810180F281E02D892F809560FF12C0FA
:1026D000F8942281822382838181892B8183A0E1E6
:1026E000B0E01197F1F78281982B928378948AE673
:1026F00090E011C0F8942281822382838181892B0A
:102700008183AEE7B0E01197F1F78281982B928335
:10271000789486E090E00197F1F70895CF92DF92E8
:10272000EF92FF920F931F93CF93DF931F92CDB73A
:10273000DEB76C01E62E08E010E0FF24F39461E0C0
:102740008F2D8E2109F460E0C60149830E945F133A
:10275000FF0C0150110949810115110581F7411143
:1027600015C0F894D6011196ED91FC9112979181C4
:102770008C918095892381831196ED91FC9112971C
:1027800092818C9180958923828378940F90DF9138
:10279000CF911F910F91FF90EF90DF90CF90089510
:1027A000CF92DF92EF92FF920F931F93CF93DF931D
:1027B0001F92CDB7DEB78C01F62E40E065E5798338
:1027C0000E948E13CF2C7981D72E760188E0E80EF7
:1027D000F11CF60161916F0140E0C8010E948E1367
:1027E000CE14DF04B1F70F90DF91CF911F910F91BD
:1027F000FF90EF90DF90CF900895FC0190810180D1
:10280000F281E02DF8948181292F20958223818304
:1028100078948DE7815009F130813923D9F3F89408
:102820008281822382838181892B81837894ACEB9E
:10283000B3E01197F1F7F894818128232183A8E868
:10284000B0E01197F1F78081982381E009F080E0F2
:102850007894E0E3F3E03197F1F7089561E00C94A8
:102860000D04EF92FF921F93CF93DF931F92CDB78A
:10287000DEB77C0169830E9425046981862F0E944E
:10288000E106182FC7010E942E14812F0F90DF91AF
:10289000CF911F91FF90EF90089561EE0C94311449
:1028A000EF92FF921F93CF93DF9300D0CDB7DEB7A7
:1028B0007C014A8369830E9425046981862F8F7178
:1028C00080620E94E106182F4A81842F0E94E1064F
:1028D000C7010E942E14812F0F900F90DF91CF918E
:1028E0001F91FF90EF900895CF92DF92EF92FF92A9
:1028F0000F931F93CF93DF9300D01F92CDB7DEB716
:102900007C01142F2A835B8369830E9425046981DB
:10291000862F8F7180620E94E106082FC12E5B8195
:10292000D52E2A81120F1C1531F0F60181916F010D
:102930000E94E106F8CFC7010E942E14802F0F904D
:102940000F900F90DF91CF911F910F91FF90EF901B
:10295000DF90CF900895EF92FF921F93CF93DF9374
:102960001F92CDB7DEB77C0169830E94250469817F
:10297000862F8F710E94E1068FEF0E94E106182FCB
:10298000C7010E942E14812F0F90DF91CF911F91CC
:10299000FF90EF900895EF92FF920F931F93CF93C4
:1029A0008C017B0166E00E94AB14C82FC77D82E0DA
:1029B000E816F10431F4C0628BE990E0A0E0B0E0E9
:1029C0000DC0EA94EF2829F085E590E0A0E0B0E0A2
:1029D00005C0C86081E490E0A0E0B0E0F801808B21
:1029E000918BA28BB38B4C2F66E0C8010E945014D0
:1029F00066E0C8010E94AB1491E08C1390E0892F2F
:102A0000CF911F910F91FF90EF900895CF93DF9397
:102A1000EC0160E00E94AB1481FD0EC0482F4260C3
:102A200060E0CE010E94501465E070E080E090E02C
:102A3000DF91CF910C94410EDF91CF910895CF9308
:102A4000DF93EC0160E00E940104888999890E946B
:102A5000380E6DE1CE010E94AB1481FF07C088895A
:102A600099890E94380ECE010E944D1460E0CE017B
:102A70000E94AB14482F4E7F60E0CE010E9450149C
:102A800062E0CE010E94AB14EEEDF3E0E49141E090
:102A900050E001C0440FEA95EAF7482B62E0CE010E
:102AA000DF91CF910C945014CF93DF93EC010E94EF
:102AB000061560E0CE010E94AB14482F416060E033
:102AC000CE010E94501440E767E0CE010E945014EE
:102AD00061E0CE010E9401048985882349F02E859A
:102AE000AE01475F5F4F6AE0CE010E94741414C0CC
:102AF00062E0CE010E94AB14EEEDF3E0E49121E040
:102B000030E001C0220FEA95EAF72095422F4823D2
:102B100062E0CE010E9450146DE1CE010E94AB1420
:102B200081FF05C0CE01DF91CF910C944D14DF9150
:102B3000CF9108951F93CF93DF93EC018881998102
:102B40002A813B818217930719F061E00E94FC0DF6
:102B50008A819B81288139812817390719F061E022
:102B60000E94FC0D1FB7F89480910E02811127C0BE
:102B7000E4E0F4E08491E8E1F4E09491E82FF0E0FF
:102B8000EE0FFF1FEA56FC4FA591B491EC91E9239B
:102B900021F461E08AE00E94CC0D61E08AE00E94AD
:102BA000FC0D8CB580618CBD8CB580648CBD61E002
:102BB0008DE00E94FC0D61E08BE00E94FC0D809195
:102BC0000E028F5F80930E021FBF60E0CE010E9455
:102BD000010461E0CE010E940D0465E070E080E038
:102BE00090E00E94410E4CE060E0CE010E94501443
:102BF0004FE564E0CE010E94501462E070E0CE0127
:102C00000E94CB14882311F081E08E8366E0CE0110
:102C10000E94AB14182F60E070E0CE010E94CB142C
:102C2000CE010E94250480E50E94E10683E70E9410
:102C3000E106CE010E942E1440E06DE1CE010E941B
:102C4000501440E06CE1CE010E945014188640E719
:102C500067E0CE010E9450144CE465E0CE010E9472
:102C6000501462EECE010E943114CE010E944D1428
:102C7000CE010E94061560E0CE010E94AB14482FE1
:102C80004E7F60E0CE010E945014115081E01E3F43
:102C900008F080E0DF91CF911F9108951F93CF93AB
:102CA000DF93EC01162F61E00E94AB14482F112333
:102CB00011F0416001C04E7F61E0CE01DF91CF9104
:102CC0001F910C9450147F928F929F92AF92BF925B
:102CD000CF92DF92EF92FF920F931F93CF93DF93E8
:102CE000CDB7DEB728970FB6F894DEBF0FBECDBFC5
:102CF000FC019B012115310559F0822F8770863028
:102D000008F0FAC0A3E036952795AA95E1F7F2CF2F
:102D100062AB73AB87A590A9DC012D913C912F3F4D
:102D2000310509F4E9C0DC0112962D913C9113970D
:102D30002F3F310509F4E0C0E72EF62E8F0160E049
:102D40000E944E16F801C7A4D0A86DE1C6010E94EA
:102D5000AB14482F44606DE1C6010E9450146CE131
:102D6000C6010E94AB14482F4F636CE1C6010E945C
:102D7000501481E0D60118968C93F80182A993A98A
:102D800066E070E00E94B822482F440F4B5FF0E1EC
:102D90004F9FA0011124456064E0D8019F968D915A
:102DA0009C91D0970E94501489E190E0A0E0B0E09F
:102DB000F80181839283A383B4838BE490E09683AC
:102DC000858382A993A940E02FEF3FEFB9016823E3
:102DD0007923672B39F073E0220F331F7A95E1F7DF
:102DE0004F5FF4CFF80141AB20953095E059FE4F8D
:102DF0003183208363E0369527956A95E1F7339711
:102E0000A90148235923518340832115310559F0E5
:102E100043E0969587954A95E1F753E036952795D7
:102E20005A95E1F7F2CFF801E159FE4F808386E031
:102E3000782E88248394912C7A94FFEF7F1609F4DE
:102E400054C0672D8F2D9E2D0E942804D8019F9677
:102E5000CD90DC90D09729833A834B835C836D833C
:102E60007E838F839887A72CB12C71100BC0F6013D
:102E7000468550E0BE016F5F7F4FC60109960E94F4
:102E80003A2403C0F1E07F1208C0F501E651FC4F7F
:102E90006491D6011E962C9105C0F501E651FC4FB8
:102EA000649121E0AE014F5F5F4FC6010E94741430
:102EB000F501EC51FC4F6491F6014781C6010E9477
:102EC000501462E0C6010E94AB14F501E252FC4FBF
:102ED000E491940101C0220FEA95EAF7482F422BB2
:102EE00062E0C6010E945014A7CFD8019F968D9131
:102EF0009C91D0970E94541528960FB6F894DEBF87
:102F00000FBECDBFDF91CF911F910F91FF90EF903A
:102F1000DF90CF90BF90AF909F908F907F9008955B
:102F20008F929F92AF92BF92CF92DF92EF92FF92D9
:102F3000CF93DF93EC014A015B010E947B0E6B0192
:102F40007C0167E1CE010E94AB1484FD29C06FEFC4
:102F5000CE010E94311484FFF4CF40E167E0CE013E
:102F60000E94501460E0CE010E94010461E0CE0195
:102F70000E9401040E947B0EDC01CB018C199D098B
:102F8000AE09BF0988159905AA05BB05D0F260E016
:102F9000CE010E940104CE010E944D1480E005C0C4
:102FA00060E0CE010E94010481E0DF91CF91FF90AB
:102FB000EF90DF90CF90BF90AF909F908F9008954B
:102FC0001F920F920FB60F9211242F933F938F935E
:102FD0009F93AF93BF938091060290910702A091B7
:102FE0000802B09109023091850426E0230F2D37A5
:102FF00020F40296A11DB11D05C029E8230F0396F8
:10300000A11DB11D209385048093060290930702B1
:10301000A0930802B093090280910A0290910B02DA
:10302000A0910C02B0910D020196A11DB11D8093DB
:103030000A0290930B02A0930C02B0930D02BF9171
:10304000AF919F918F913F912F910F900FBE0F9055
:103050001F901895CF93DF93CDB7DEB762970FB669
:10306000F894DEBF0FBECDBF789484B5826084BD76
:1030700084B5816084BD85B5826085BD85B581607C
:1030800085BD80916E00816080936E0010928100FA
:1030900080918100826080938100809181008160B5
:1030A0008093810080918000816080938000809176
:1030B000B10084608093B1008091B0008160809302
:1030C000B00080917A00846080937A0080917A00C9
:1030D000826080937A0080917A008E7F80937A005C
:1030E00080917A00806880937A001092C10084E910
:1030F00092E0909303018093020180916900837FA5
:10310000846080936900E99A88E18093600081E29D
:103110008093600080916000806480936000809163
:103120007A008F7780937A008AB183618AB987B1F8
:103130008F6387B9219A83B7846083BF83B7816027
:1031400083BF60E083E00E94FC0D85E992E09093EC
:1031500003018093020180916900837F84608093E2
:103160006900E99A84EC92E00E949A1566E084EC8A
:1031700092E00E94AB14887F482F456066E084ECA3
:1031800092E00E94501462E070E084EC92E00E94B1
:10319000CB1461E088E00E94FC0D60E088E00E94B2
:1031A000CC0D6AE070E080E090E00E94410E61E0AA
:1031B00088E00E94CC0D6AE070E080E090E00E9420
:1031C000410E67E089EE92E00E94C30666E08DEE54
:1031D00092E00E94C3062A9A229A239A259A109274
:1031E000E0021092E102E0E9F3E085919491182F5A
:1031F000E2E9F3E0D490E3E9F3E0E491E093E20262
:10320000E4E9F3E0E491E093E302E5E9F3E0E4913B
:10321000E093E4027C018E2D811B8D1550F4F701A3
:1032200064918CED92E00E947B04FFEFEF1AFF0A9D
:10323000F2CF1092E6028CED92E00E94980685EAA9
:1032400091E09093E8028093E7028CED92E00E9477
:10325000980682E08093E502E0911F02F09120023F
:103260008083E0911B02F0911C021082E0911D020C
:10327000F0911E0288E0808310922702E0912302E1
:10328000F091240286E08083E0912102F0912202F5
:10329000808180618083E0912102F091220280810F
:1032A00088608083E0912102F09122028081806811
:1032B0008083E0912102F091220280818F7D8083C2
:1032C00083E08093AE026DE471E08CED92E00E94A9
:1032D000B8128AE991E00E94380D8091B202909173
:1032E000B3020E949A158091AE02882339F084E2DD
:1032F00099E09093AD028093AC020EC086E090E01E
:103300000E9408239093B0028093AF021092B10202
:103310001092AD021092AC0281E68093BF0241E6AA
:1033200065E08091B2029091B3020E94501460E077
:1033300070E08091B2029091B3020E94CB14809110
:10334000B4029091B50221E0FC0121A72091AE02C8
:10335000222319F00E94870E06C06091AC02709182
:10336000AD020E94631683E00E94A30D90930502B4
:1033700080930402019711F481E301C080E38093FC
:10338000150147E050E06DE481E191E00E94F80A08
:10339000892B69F564EF71E080E090E00E94410EB6
:1033A00080910F01909110010197909310018093EB
:1033B0000F01892B31F78CED92E00E94980668E5A9
:1033C00071E08CED92E00E94B81260E771E08CED44
:1033D00092E00E94B81264E671E08FE092E00E94F1
:1033E000B81260E177E280E090E00E94410E8CED3F
:1033F00092E00E9498066AE771E08CED92E00E94EC
:10340000B81263E871E08CED92E00E94B8128BE88C
:1034100091E00E94380D61E082E10E94FC0D61E0C4
:1034200082E10E94CC0DE091F702F091F802138640
:1034300015861486DF011B9633961E92AE17BF07C2
:10344000E1F71092F5021092F60211E0BE016F5FF3
:103450007F4F8091F7029091F8020E94140C88230C
:1034600009F45EC067E0CE0101960E94241398859E
:103470008913ECCF8091F102811127C08091F7026E
:103480009091F8020E94FD13BE016F5F7F4F809103
:10349000F7029091F8020E94D01340E064EB809113
:1034A000F7029091F8020E948E138091F70290919A
:1034B000F8020E943B13F82E8091F7029091F802D7
:1034C0000E94FD13FF2009F4B7C2F090F202CE0172
:1034D00001960E94F00C8F1518F48091F20204C03E
:1034E000CE0101960E94F00C8093F2028091F502C9
:1034F0008F5F8093F5028981883261F030F48031EA
:1035000049F0823209F0A2CF05C08B3319F0823422
:1035100009F09CCF8091F6028F5F8093F60296CFE0
:10352000BCE3EB2EF12C6E01F6E0CF0ED11C15ECB6
:10353000312E0E94341083E00E94A30D9093050267
:1035400080930402209102023091030282179307B4
:1035500049F41092F90164EF71E080E090E00E947C
:10356000410EA2C09093030280930202019711F4CE
:1035700081E301C080E380931501F0921001E09295
:103580000F0169E871E08FE092E00E94B81247E015
:1035900050E06DE481E191E00E94F80A892BC9F6C0
:1035A00064EF71E080E090E00E94410E80910F0195
:1035B0009091100101979093100180930F01892B36
:1035C00031F7C7CF1C821B8280911801909119019D
:1035D0009C012F5F3F4F30931901209318019E8368
:1035E0008D833F8208E310E020E030E040E050E0CF
:1035F000BE016F5F7F4F8091B4029091B5020E942F
:103600000F0A882371F064E279E08091B40290910E
:10361000B5020E94631684E299E09093AD02809314
:10362000AC0260E084EC92E00E94010460E084EC73
:1036300092E00E94AB14482F4D7F60E084EC92E052
:103640000E94501485B7806685BF85B78F798064E6
:1036500085BF88958091F801813079F51092F80145
:103660008091000290910102019690930102809353
:1036700000028091FE019091FF0101969093FF015D
:103680008093FE016BE971E08FE092E00E94B81236
:1036900080910002909101020C9799F08091FE01B7
:1036A0009091FF01059701F18091AC029091AD02DC
:1036B0008432994009F086CFB4CF8091F80181110E
:1036C000F3CF84EC92E00E9406150E94870E1092C0
:1036D00001021092000264EF71E080E090E00E942D
:1036E000410E0E94491225CF1092FF011092FE0157
:1036F00084EC92E00E9406150E94870E0E9434100E
:103700006FEA71E08FE092E00E94B81262EC71E023
:103710008FE092E00E94B8128091F7029091F80237
:103720000E94FD1340E06CEC8091F7029091F8024A
:103730000E948E134091F10264E48091F70290910F
:10374000F8020E948E138091F3028823D9F1E09150
:10375000F202E950E33040F4F0E0EE0FFF1FE95DC4
:10376000FE4F0081118102C00EEE12E08091F40242
:10377000882311F18091F10281111EC00E947B0EFD
:103780004B015C012801110F660877088091F70250
:103790009091F8020E943B138130A1F00E947B0EB1
:1037A000DC01CB0184199509A609B709881599058B
:1037B000AA05BB0558F306C0B801110F880B990B79
:1037C0000E94410E68EE73E080E090E00E94410E9E
:1037D000E091F702F091F802138615861486DF0156
:1037E0001B96CF0103961E92A817B907E1F7BE01F9
:1037F000655F7F4FCF010E94140C882349F067E07A
:10380000CE010B960E9424139A89891709F417C1D7
:1038100060E070E08EEF92EC6093FA017093FB0130
:103820008093FC019093FD0168EC71E08FE092E0E1
:103830000E94A3124090FA015090FB016090FC019D
:103840007090FD01A3019201C301B2010E94A72261
:10385000882319F06FEC71E01AC053014201E8941B
:10386000B7F82FEF3FEF4FE75FE7C501B4010E94C4
:10387000A722811111C02FEF3FEF4FE75FE7C5018E
:10388000B4010E944F2118163CF463ED71E08FE003
:1038900092E00E94A31282C02FEF3FEF4FE75FE458
:1038A000C301B2010E94352218161CF467ED71E0C5
:1038B000EECF2FEF3FEF4FE75FECC301B2010E9465
:1038C0004F2187FDF3CF20E030E0A901C301B20111
:1038D0000E944F2187FF0FC0E0910F02F09110026C
:1038E0000190F081E02D6DE28FE092E0099577FA8A
:1038F000709477F870942AE037ED43EA5BE3C301F4
:10390000B2010E94E3204B015C010E9454212B0173
:103910003C010E9483219B01AC01C501B4010E94BE
:10392000E2204B015C014AE0C301B2010E94600D3C
:10393000E0910F02F09110020190F081E02D6EE213
:103940008FE092E0099520E030E040E251E4C501CB
:10395000B4010E943A224B015C010E9454212B01C8
:10396000612C712C4AE0C301B2010E94600DC301B9
:10397000B2010E9483219B01AC01C501B4010E94E8
:10398000E22020E030E040E251E40E943A220E942E
:10399000542180E090E04AE00E94600D6BED71E000
:1039A0008FE092E00E94A3126091FA017091FB01F6
:1039B0008091FC019091FD018E010F5F1F4F24E06B
:1039C00044E00E945C1EF801A8E0B1E081918D9373
:1039D000EC15FD05D9F7F0921001E0920F016EEDA4
:1039E00071E08FE092E00E94A31264E071E08FE04A
:1039F00092E00E94B8124BE050E06EE484E091E067
:103A00000E94F80A892B89F464EF71E080E090E06D
:103A10000E94410E80910F019091100101979093A7
:103A2000100180930F01892B31F767EE71E08FE071
:103A300092E00E94B81238CE1093F10246CD8091E8
:103A4000F7029091F8020E94FD138823F1F1BE0164
:103A50006F5F7F4FCE010B960E94A40C8823A9F1C3
:103A600068E0CE0101960E942413998589132DC028
:103A7000698148E0649FB00111248A81282F30E0D9
:103A8000322F2227330F330F330F262B372B8B8503
:103A90008031C9F4688570E08F81FB01E81BF10972
:103AA000CF019695982F8827979587950E94CC22CD
:103AB00060517109207F53E0220F331F5A95E1F7BF
:103AC000620F731F04C0B90102C060E874EE613870
:103AD000F4EE7F070CF49CCE072E000C880B990B9C
:103AE0000E94852120E030E040E05CE30E943A2221
:103AF00093CE109212021092110288EE93E0A0E091
:103B0000B0E08093130290931402A0931502B09337
:103B1000160281E391E09093100280930F0285ECEE
:103B200090E090931C0280931B0284EC90E09093B1
:103B30001E0280931D0280EC90E0909320028093FF
:103B40001F0281EC90E0909322028093210282EC8C
:103B500090E0909324028093230286EC90E090936F
:103B600026028093250210922802109229021092B8
:103B70002A0210922B0260E081E10E94FC0DEFE12D
:103B8000F4E0E491E0937704EBE0F4E0E491F0E01A
:103B9000EE0FFF1FE051FC4F8591949190937904B3
:103BA000809378041092820410928404109283040B
:103BB000E2E8F4E0129284E0EA37F807D9F787E701
:103BC00094E09093F8028093F7021092F50210921D
:103BD000F6021092F10289E08093F20281E0809374
:103BE000F3028093F40210920403109203031092E4
:103BF000DF021092DE028093E5021092E80210923A
:103C0000E70283E491E09093DD028093DC0284EC90
:103C100092E02AE030E03093C5022093C40225E010
:103C200030E03093C7022093C6021092CA0220E20D
:103C30002093CB021092CC0225E02093D20245E0E3
:103C400050E060E070E04093D8025093D902609356
:103C5000DA027093DB021092CD02909335038093C9
:103C600034032AE333E03093D5032093D40322EEC8
:103C700033E03093E1032093E00326ED33E030930B
:103C80002D0320932C0310923003109231031092D5
:103C900032031092330310922F0310922E031092CE
:103CA00005039093B3028093B20285E093E0909372
:103CB000B5028093B4020895EF920F931F93CF93B0
:103CC000DF93E80147FD02C034E001C034E1E42F96
:103CD000440FFF0BF7FF03C0F195E195F109E32EC7
:103CE000022F2E2FAE010E947C1ECE01DF91CF91BC
:103CF0001F910F91EF9008954F925F926F927F9274
:103D00009F92AF92BF92CF92DF92EF92FF920F936A
:103D10001F93CF93DF93CDB7DEB729970FB6F894F3
:103D2000DEBF0FBECDBF6A01122FB02E2BE32017CE
:103D300020F0FF24F394F00E02C0BCE3FB2E0F2D05
:103D400027E0AE014F5F5F4F0E940A20AC018981DE
:103D5000982F9970913031F0E1FC06C0E0FE06C06A
:103D600090E205C09DE203C09BE201C090E0EE2D11
:103D7000E07183FF3CC0911102C083E001C084E088
:103D8000811718F4212F281B01C020E0E1110BC07E
:103D9000F601822F30E2882319F031938150FBCF56
:103DA000C20ED11C20E0992329F0D6019C93F60184
:103DB00031966F01C6010396E2FE0AC03EE4D601C9
:103DC0003C9341E411964C93119712963C9306C094
:103DD0003EE6F601308341E641833283FC01322F17
:103DE00040E2332309F442C041933150FACF82FFBD
:103DF00044C0911102C083E001C084E0811718F42F
:103E0000212F281B01C020E0E1110BC0F601822FF9
:103E100030E2882319F031938150FBCFC20ED11CC0
:103E200020E0992329F0D6019C93F60131966F0189
:103E3000C6010396E2FE0BC039E4D6013C933EE492
:103E400011963C93119736E412963C9307C039E6DD
:103E5000F60130833EE6318336E63283FC01322FB1
:103E600040E2332319F041933150FBCFFC01E20FC4
:103E7000F11D10828EEF9FEFB7C0F1E0911101C0EC
:103E8000F0E06F2F70E01416150624F49A012F5FEE
:103E90003F4F02C021E030E0260F371FBB2029F042
:103EA0006B2D70E06F5F7F4F02C060E070E0260F07
:103EB000371F612F70E0261737071CF4121B212FC4
:103EC00001C020E03E2D387159F4D601322F60E256
:103ED000332319F06D933150FBCFC20ED11C20E07B
:103EE000FF2331F0D6019C93B6016F5F7F4F6B01CA
:103EF000E1110BC0F601922F30E3992319F03193B1
:103F00009150FBCFC20ED11C20E09F2D940F3A811F
:103F1000782F7071A72E84FF03C0313309F49150BC
:103F2000191624F4993018F098E001C091E0E42FBC
:103F3000852F57FF02C0E0E080E06E2F782FE0E091
:103F4000F0E0AEE29A2E3A01691A71082A01461A87
:103F5000570A0B2D10E01195019511096F3F8FEF56
:103F6000780729F4D6019C92C60101966C01461788
:103F7000570784F0661677066CF47F01E40CF51C95
:103F8000A1E0B0E0AC0FBD1FEA0EFB1ED7011196F9
:103F9000BC9002C090E3B92E615071093196C60100
:103FA00001967C016017710724F0D601BC926C0168
:103FB000D5CF6417750741F4363320F4353321F437
:103FC000A11002C081E3B82EF601B082F701822F62
:103FD00090E2882319F091938150FBCFF701E20F13
:103FE000F11D108280E090E029960FB6F894DEBFB4
:103FF0000FBECDBFDF91CF911F910F91FF90EF903A
:10400000DF90CF90BF90AF909F907F906F905F9028
:104010004F900895283008F027E03327DA01990FF0
:10402000311D87FD916000966105710539F432609C
:104030002E5F3D9330E32A95E1F708959F3F30F0DE
:1040400080387105610509F03C5F3C5F3D9391301C
:1040500008F08068911DDF93CF931F930F93FF9219
:10406000EF92192F987F9695E92F96959695E90FDF
:10407000FF27EE53FF4F99273327EE24FF24A70194
:10408000E70105900894079428F4360FE71EF81E00
:10409000491F511D660F771F881F991F0694A1F7AE
:1040A0000590079428F4E70EF81E491F561FC11DFE
:1040B000770F881F991F661F0694A1F70590079434
:1040C00028F4F80E491F561FC71FD11D880F991FCE
:1040D000661F771F0694A1F70590079420F4490FF7
:1040E000561FC71FD81F990F661F771F881F06947A
:1040F000A9F784911095177041F0D695C7955795FB
:104100004795F794E7941A95C1F7E8E6F0E06894CC
:104110001590159135916591959105907FE2739574
:10412000E118F10A430B560BC90BD009C0F7E10C9B
:10413000F11E431F561FC91FD01D7EF4703311F4AA
:104140008A95E6CFE894015030F0080F0AF4002772
:10415000021708F4202F2395022F7A3328F079E3F1
:104160007D932A95E9F710C07D932A9589F60694E8
:1041700097956795379517951794E118F10A430BB2
:10418000560BC90BD00998F023957E9173957A331D
:1041900008F070E37C932013B8F77E9170617D93F3
:1041A00030F0839571E37D9370E32A95E1F7112454
:1041B000EF90FF900F911F91CF91DF91992787FD8D
:1041C000909508955058BB27AA270E94FA200C9476
:1041D000FB210E94ED2138F00E94F42120F039F4F7
:1041E0009F3F19F426F40C94EA210EF4E095E7FBC6
:1041F0000C94E421E92F0E940C2258F3BA176207AD
:1042000073078407950720F079F4A6F50C942E2205
:104210000EF4E0950B2EBA2FA02D0B01B9019001E1
:104220000C01CA01A0011124FF27591B99F0593F25
:1042300050F4503E68F11A16F040A22F232F342F6D
:104240004427585FF3CF469537952795A795F040BB
:104250005395C9F77EF41F16BA0B620B730B840BD0
:10426000BAF09150A1F0FF0FBB1F661F771F881F88
:10427000C2F70EC0BA0F621F731F841F48F48795E0
:1042800077956795B795F7959E3F08F0B0CF9395D2
:10429000880F08F09927EE0F9795879508950E944B
:1042A000C02108F481E008950E94142288F09F57ED
:1042B00098F0B92F9927B751B0F0E1F0660F771F4A
:1042C000881F991F1AF0BA95C9F714C0B13091F040
:1042D0000E942E22B1E008950C942E22672F782F91
:1042E0008827B85F39F0B93FCCF386957795679505
:1042F000B395D9F73EF490958095709561957F4F71
:104300008F4F9F4F0895E89409C097FB3EF4909516
:104310008095709561957F4F8F4F9F4F9923A9F09E
:10432000F92F96E9BB279395F6958795779567952D
:10433000B795F111F8CFFAF4BB0F11F460FF1BC071
:104340006F5F7F4F8F4F9F4F16C0882311F096E904
:1043500011C0772321F09EE8872F762F05C06623B2
:1043600071F096E8862F70E060E02AF09A95660F6B
:10437000771F881FDAF7880F9695879597F9089524
:10438000990F0008550FAA0BE0E8FEEF1616170666
:10439000E807F907C0F012161306E407F50798F0CE
:1043A000621B730B840B950B39F40A2661F0232BE7
:1043B000242B252B21F408950A2609F4A140A69563
:1043C0008FEF811D811D089597F99F6780E870E048
:1043D00060E008959FEF80EC089500240A9416167B
:1043E000170618060906089500240A9412161306E3
:1043F000140605060895092E0394000C11F4882371
:1044000052F0BB0F40F4BF2B11F460FF04C06F5F8C
:104410007F4F8F4F9F4F089557FD9058440F551F62
:1044200059F05F3F71F04795880F97FB991F61F036
:104430009F3F79F087950895121613061406551FAD
:10444000F2CF4695F1DF08C0161617061806991F19
:10445000F1CF86957105610508940895E894BB270E
:1044600066277727CB0197F908950E94C02108F4A9
:104470008FEF08950E944D220C94FB210E94ED21A4
:1044800038F00E94F42120F0952311F00C94E421DF
:104490000C94EA2111240C942F220E940C2270F318
:1044A000959FC1F3950F50E0551F629FF001729FD9
:1044B000BB27F00DB11D639FAA27F00DB11DAA1FE8
:1044C000649F6627B00DA11D661F829F2227B00D35
:1044D000A11D621F739FB00DA11D621F839FA00DC0
:1044E000611D221F749F3327A00D611D231F849F10
:1044F000600D211D822F762F6A2F11249F57504067
:104500009AF0F1F088234AF0EE0FFF1FBB1F661FE1
:10451000771F881F91505040A9F79E3F510580F0AA
:104520000C94E4210C942F225F3FE4F3983ED4F3E3
:10453000869577956795B795F795E7959F5FC1F74E
:10454000FE2B880F911D9695879597F908950E94E7
:10455000C021880B990B0895991B79E004C0991F1D
:10456000961708F0961B881F7A95C9F780950895CD
:10457000AA1BBB1B51E107C0AA1FBB1FA617B70789
:1045800010F0A61BB70B881F991F5A95A9F78095A5
:104590009095BC01CD01089597FB072E16F4009469
:1045A00007D077FD09D00E94B82207FC05D03EF461
:1045B000909581959F4F0895709561957F4F0895CF
:1045C000A1E21A2EAA1BBB1BFD010DC0AA1FBB1F17
:1045D000EE1FFF1FA217B307E407F50720F0A21B89
:1045E000B30BE40BF50B661F771F881F991F1A94F6
:1045F00069F760957095809590959B01AC01BD0120
:10460000CF010895EE0FFF1F0590F491E02D09945E
:10461000CF93DF938230910510F482E090E0E09137
:104620008804F091890420E030E0C0E0D0E03097C9
:1046300011F14081518148175907C0F048175907B7
:1046400061F482819381209719F09B838A832BC028
:10465000909389048093880426C02115310519F0B0
:104660004217530718F49A01BE01DF01EF010280DF
:10467000F381E02DDCCF2115310509F1281B390B21
:104680002430310590F412968D919C911397611509
:10469000710521F0FB019383828304C09093890408
:1046A00080938804FD01329644C0FD01E20FF31FA0
:1046B00081939193225031092D933C933AC02091DC
:1046C000860430918704232B41F420911C01309102
:1046D0001D01309387042093860420911A013091A4
:1046E0001B012115310541F42DB73EB740911E0144
:1046F00050911F01241B350BE0918604F091870433
:10470000E217F307A0F42E1B3F0B2817390778F0A8
:10471000AC014E5F5F4F2417350748F04E0F5F1F07
:1047200050938704409386048193919302C0E0E004
:10473000F0E0CF01DF91CF9108950F931F93CF93B6
:10474000DF93009709F48CC0FC0132971382128228
:1047500000918804109189040115110581F42081CC
:104760003181820F931F209186043091870428178E
:10477000390779F5F0938704E093860471C0D80176
:1047800040E050E0AE17BF0750F412962D913C91D7
:104790001397AD012115310509F1D901F3CF9D0121
:1047A000DA013383228360817181860F971F82171C
:1047B000930769F4EC0128813981260F371F2E5F9A
:1047C0003F4F318320838A819B8193838283452B52
:1047D00029F4F0938904E093880442C01396FC9373
:1047E000EE931297ED01499159919E01240F351FC7
:1047F000E217F30771F480819181840F951F02966F
:1048000011969C938E938281938113969C938E93A1
:104810001297E0E0F0E0D80112968D919C911397E9
:10482000009719F0F8018C01F6CF8D919C919801B9
:104830002E5F3F4F820F931F209186043091870493
:104840002817390769F4309729F4109289041092D7
:10485000880402C013821282109387040093860496
:10486000DF91CF911F910F91089581E090E0F8942E
:104870000C944324FB01DC0102C001900D924150D5
:0A4880005040D8F70895F894FFCFD8
:10488A004C114C113030332D32332E33340A003C64
:10489A00003030332D300A00010000008A04800005
:1048AA00C33C33CE3EE3EC5E00BC0077010000005F
:1048BA0000E0114D1178112712A91187119B1100DF
:1048CA00000000F8044D119A0299029C0B5374617E
:1048DA007274696E672E2E004D617820726574724B
:1048EA00696573004D617820726574726965732019
:1048FA00657863656564656421005374616E6469F3
:10490A006E670062792E2E2E0053656E64696E679B
:10491A00206F63637570616E63790053656E6469B5
:10492A006E672074656D7065726174757265005288
:10493A00656164696E672074656D7065617475720E
:10494A006500496E20666E00526561643A20006E09
:10495A00616E00696E66006F7666000D0A00536527
:10496A006E64696E67200053656E742074656D709D
:08497A0065726174757265003D
:00000001FF
